{
    "contractName": "participate",
    "abi": [
        {
            "inputs": [
                {
                    "internalType": "address",
                    "name": "tokenAddress",
                    "type": "address"
                }
            ],
            "stateMutability": "nonpayable",
            "type": "constructor"
        },
        {
            "anonymous": false,
            "inputs": [
                {
                    "indexed": false,
                    "internalType": "uint256",
                    "name": "reportId",
                    "type": "uint256"
                },
                {
                    "indexed": false,
                    "internalType": "address",
                    "name": "uploader",
                    "type": "address"
                }
            ],
            "name": "ReportRevoked",
            "type": "event"
        },
        {
            "anonymous": false,
            "inputs": [
                {
                    "indexed": false,
                    "internalType": "uint256",
                    "name": "reportId",
                    "type": "uint256"
                },
                {
                    "indexed": false,
                    "internalType": "address",
                    "name": "voter",
                    "type": "address"
                }
            ],
            "name": "VoteRevoked",
            "type": "event"
        },
        {
            "inputs": [],
            "name": "REPORT_REWARD",
            "outputs": [
                {
                    "internalType": "uint256",
                    "name": "",
                    "type": "uint256"
                }
            ],
            "stateMutability": "view",
            "type": "function"
        },
        {
            "inputs": [],
            "name": "REPORT_STAKE",
            "outputs": [
                {
                    "internalType": "uint256",
                    "name": "",
                    "type": "uint256"
                }
            ],
            "stateMutability": "view",
            "type": "function"
        },
        {
            "inputs": [],
            "name": "VALIDATE_REWARD",
            "outputs": [
                {
                    "internalType": "uint256",
                    "name": "",
                    "type": "uint256"
                }
            ],
            "stateMutability": "view",
            "type": "function"
        },
        {
            "inputs": [],
            "name": "VALIDATE_STAKE",
            "outputs": [
                {
                    "internalType": "uint256",
                    "name": "",
                    "type": "uint256"
                }
            ],
            "stateMutability": "view",
            "type": "function"
        },
        {
            "inputs": [
                {
                    "internalType": "uint256",
                    "name": "reportId",
                    "type": "uint256"
                }
            ],
            "name": "finalizeReport",
            "outputs": [],
            "stateMutability": "nonpayable",
            "type": "function"
        },
        {
            "inputs": [
                {
                    "internalType": "address",
                    "name": "user",
                    "type": "address"
                }
            ],
            "name": "getVoteWeight",
            "outputs": [
                {
                    "internalType": "uint256",
                    "name": "",
                    "type": "uint256"
                }
            ],
            "stateMutability": "view",
            "type": "function"
        },
        {
            "inputs": [],
            "name": "reportCount",
            "outputs": [
                {
                    "internalType": "uint256",
                    "name": "",
                    "type": "uint256"
                }
            ],
            "stateMutability": "view",
            "type": "function"
        },
        {
            "inputs": [
                {
                    "internalType": "uint256",
                    "name": "",
                    "type": "uint256"
                }
            ],
            "name": "reports",
            "outputs": [
                {
                    "internalType": "uint256",
                    "name": "id",
                    "type": "uint256"
                },
                {
                    "internalType": "address",
                    "name": "uploader",
                    "type": "address"
                },
                {
                    "internalType": "int256",
                    "name": "net_votes",
                    "type": "int256"
                },
                {
                    "internalType": "bool",
                    "name": "validated",
                    "type": "bool"
                }
            ],
            "stateMutability": "view",
            "type": "function"
        },
        {
            "inputs": [
                {
                    "internalType": "uint256",
                    "name": "reportId",
                    "type": "uint256"
                }
            ],
            "name": "revoke_report",
            "outputs": [],
            "stateMutability": "nonpayable",
            "type": "function"
        },
        {
            "inputs": [
                {
                    "internalType": "uint256",
                    "name": "reportId",
                    "type": "uint256"
                }
            ],
            "name": "revoke_vote",
            "outputs": [],
            "stateMutability": "nonpayable",
            "type": "function"
        },
        {
            "inputs": [
                {
                    "internalType": "address",
                    "name": "",
                    "type": "address"
                }
            ],
            "name": "stakedTokens",
            "outputs": [
                {
                    "internalType": "uint256",
                    "name": "",
                    "type": "uint256"
                }
            ],
            "stateMutability": "view",
            "type": "function"
        },
        {
            "inputs": [],
            "name": "submitReport",
            "outputs": [],
            "stateMutability": "nonpayable",
            "type": "function"
        },
        {
            "inputs": [],
            "name": "token",
            "outputs": [
                {
                    "internalType": "contract Campustoken",
                    "name": "",
                    "type": "address"
                }
            ],
            "stateMutability": "view",
            "type": "function"
        },
        {
            "inputs": [
                {
                    "internalType": "uint256",
                    "name": "reportId",
                    "type": "uint256"
                },
                {
                    "internalType": "int8",
                    "name": "vote",
                    "type": "int8"
                }
            ],
            "name": "validate",
            "outputs": [],
            "stateMutability": "nonpayable",
            "type": "function"
        }
    ],
    "bytecode": "608034606e57601f610fb438819003918201601f19168301916001600160401b03831184841017607257808492602094604052833981010312606e57516001600160a01b03811690819003606e575f60015560018060a01b03195f5416175f55604051610f2d90816100878239f35b5f80fd5b634e487b7160e01b5f52604160045260245ffdfe6080806040526004361015610012575f80fd5b5f905f3560e01c908163185c6f8414610d7c5750806342530abd14610adc5780635790411e14610ab95780635ff2c42c14610a955780636b38516f146108d35780638a44d91a14610744578063a5b39cfb14610707578063a730117e146106ce578063b12f55eb146106ab578063c942adf714610651578063ca93ef191461045a578063ed1957d914610436578063fa9c48b7146100e15763fc0c546a146100b8575f80fd5b346100de57806003193601126100de57546040516001600160a01b039091168152602090f35b80fd5b50346100de5760203660031901126100de576004358082526002602052604082209060038201805460ff81166103fd5760ff1916600117905560028201548312156103045782526002602052604082208254600182015491929184916001600160a01b039081169116813b15610300576040516381a4af1560e01b815260048101919091526805b12aefafa804000060248201529082908290604490829084905af18015610291576102eb575b50919091906005600482019101915b81548110156102a0576101b08183610e2f565b905460039190911b1c6001600160a01b03165f81815260208590526040902054860b600114610219575b855260036020526040852080546802b5e3af16b187ffff19810191908211610205575560010161019d565b634e487b7160e01b87526011600452602487fd5b855486906001600160a01b0316803b1561029c576040516381a4af1560e01b81526001600160a01b0384166004820152680340aad21b3b70000060248201529082908290604490829084905af1801561029157610278575b50506101da565b8161028291610d96565b61028d57855f610271565b8580fd5b6040513d84823e3d90fd5b5080fd5b5050505b600101546001600160a01b03168152600360205260408120805468056bc75e2d630fffff198101919082116102d7575580f35b634e487b7160e01b83526011600452602483fd5b816102f591610d96565b61030057825f61018e565b8280fd5b82526002602052604082206005810190600401835b81548110156103f55761032c8183610e2f565b905460039190911b1c6001600160a01b03165f81815260208590526040902054860b5f1914610381575b855260036020526040852080546802b5e3af16b187ffff198101919082116102055755600101610319565b855486906001600160a01b0316803b1561029c576040516381a4af1560e01b81526001600160a01b0384166004820152680340aad21b3b70000060248201529082908290604490829084905af18015610291576103e0575b5050610356565b816103ea91610d96565b61028d57855f6103d9565b5050506102a4565b60405162461bcd60e51b8152602060048201526011602482015270105b1c9958591e481d985b1a59185d1959607a1b6044820152606490fd5b50346100de57806003193601126100de5760206040516802b5e3af16b18800008152f35b50346100de5760203660031901126100de5760043580825260026020526040822060018101546001600160a01b0316903382900361060c576003015460ff166105c757825483916001600160a01b0390911690813b156103005782916044839260405194859384926381a4af1560e01b8452600484015268056bc75e2d6310000060248401525af18015610291576105b2575b5050338252600360205260408220805468056bc75e2d630fffff1981019190821161059e575580825260026020526004604083208381558360018201558360028201558360038201550180549083815581610580575b6040805184815233602082015285917fd70d884c5bc88c9a05d6a19993baba89fc62d9c3a7a02925bd6a748b2051d0bf9190819081015b0390a180f35b835260208320908101905b818110156105435783815560010161058b565b634e487b7160e01b84526011600452602484fd5b816105bc91610d96565b61029c57815f6104ed565b60405162461bcd60e51b815260206004820152601860248201527f5265706f727420616c72656164792066696e616c697a656400000000000000006044820152606490fd5b60405162461bcd60e51b815260206004820152601860248201527f4f6e6c792075706c6f616465722063616e207265766f6b6500000000000000006044820152606490fd5b50346100de5760203660031901126100de576040608091600435815260026020522080549060018060a01b036001820154169060ff6003600283015492015416916040519384526020840152604083015215156060820152f35b50346100de57806003193601126100de576020604051674563918244f400008152f35b50346100de5760203660031901126100de57600435906001600160a01b03821682036100de5760206106ff83610e58565b604051908152f35b50346100de5760203660031901126100de576004356001600160a01b0381169081900361029c578160409160209352600383522054604051908152f35b50346100de57806003193601126100de5780546040516370a0823160e01b815233600482015282916001600160a01b031690602081602481855afa9081156108c8578391610884575b5068056bc75e2d631000006107a3911015610dcc565b803b15610881578180916044604051809481936306888c6760e11b835233600484015268056bc75e2d6310000060248401525af180156102915761086c575b505033815260036020526040812080549068056bc75e2d6310000082018092116102d757556001545f198114610858576001600391018060015580835260026020526040832090815560018101336bffffffffffffffffffffffff60a01b8254161790558260028201550160ff19815416905580f35b634e487b7160e01b82526011600452602482fd5b8161087691610d96565b6100de57805f6107e2565b50fd5b9250506020823d6020116108c0575b816108a060209383610d96565b810103126108bc57905182919068056bc75e2d6310000061078d565b5f80fd5b3d9150610893565b6040513d85823e3d90fd5b50346100de5760203660031901126100de57600435808252600260205260408220600581019060018060a01b0333165f528160205260405f2054840b15610a4257335f818152602084815260409182902054928752600390528520805491860b916802b5e3af16b187ffff198101919082116102055755845485906001600160a01b0316803b1561029c578180916044604051809481936381a4af1560e01b83523360048401526802b5e3af16b188000060248401525af1801561029157610a29575b50506109ad6002916109a733610e58565b90610e0d565b91018054858382039312818412811691841390151617610a155755335f8181526020928352604090819020805460ff191690558051938452918301527fb6c537d4d5cd45cf3082c7458c198a25e5e551611604a18df485c806c2125c4091908190810161057a565b634e487b7160e01b85526011600452602485fd5b81610a3391610d96565b610a3e57845f610996565b8480fd5b60405162461bcd60e51b815260206004820152602560248201527f596f752068617665206e6f7420766f746564206f7220616c72656164792072656044820152641d9bdad95960da1b6064820152608490fd5b50346100de57806003193601126100de57602060405168056bc75e2d631000008152f35b50346100de57806003193601126100de576020604051678ac7230489e800008152f35b50346108bc5760403660031901126108bc5760243590815f0b918281036108bc576004355f52600260205260405f20906024602060018060a01b035f5416604051928380926370a0823160e01b82523360048301525afa908115610caf575f91610d41575b506802b5e3af16b1880000610b57911015610dcc565b600184148015610d37575b15610d0357335f90815260058301602081905260408220549095910b610cce57335f52600360205260405f208054906802b5e3af16b18800008201809211610cba57555f546001600160a01b0316803b156108bc575f80916044604051809481936306888c6760e11b83523360048401526802b5e3af16b188000060248401525af18015610caf57610c98575b50610bfd906109a733610e58565b9360028301948554858282019283129112908015821691151617610a1557600494955560018060a01b0333165f5260205260405f209060ff198254169060ff161790550180549068010000000000000000821015610c845790610c6591600182018155610e2f565b81546001600160a01b0360039290921b91821b19163390911b17905580f35b634e487b7160e01b83526041600452602483fd5b610ca59194505f90610d96565b5f92610bfd610bef565b6040513d5f823e3d90fd5b634e487b7160e01b5f52601160045260245ffd5b60405162461bcd60e51b815260206004820152600d60248201526c105b1c9958591e481d9bdd1959609a1b6044820152606490fd5b60405162461bcd60e51b815260206004820152600c60248201526b496e76616c696420766f746560a01b6044820152606490fd5b505f198414610b62565b90506020813d602011610d74575b81610d5c60209383610d96565b810103126108bc57516802b5e3af16b1880000610b41565b3d9150610d4f565b346108bc575f3660031901126108bc576020906001548152f35b90601f8019910116810190811067ffffffffffffffff821117610db857604052565b634e487b7160e01b5f52604160045260245ffd5b15610dd357565b60405162461bcd60e51b8152602060048201526012602482015271496e73756666696369656e74207374616b6560701b6044820152606490fd5b81810292915f8212600160ff1b821416610cba578184051490151715610cba57565b8054821015610e44575f5260205f2001905f90565b634e487b7160e01b5f52603260045260245ffd5b5f546040516370a0823160e01b81526001600160a01b0392831660048201529160209183916024918391165afa908115610caf575f91610ec5575b50683635c9adc5dea00000811115610eab5750600390565b681b1ae4d6e2ef5000001015610ec057600190565b600190565b90506020813d602011610eef575b81610ee060209383610d96565b810103126108bc57515f610e93565b3d9150610ed356fea26469706673582212206f1282477fb657dbb18dd138085b48b4cee89a4a9bd110fa308b93b9ab308dcd64736f6c634300081d0033",
    "sourcePath": "f:/Projects/Truestore/smartcontracts/participate.sol",
    "compiler": {
        "name": "solc",
        "version": "0.8.29+commit.ab55807c"
    },
    "functionHashes": {
        "REPORT_REWARD()": "b12f55eb",
        "REPORT_STAKE()": "5ff2c42c",
        "VALIDATE_REWARD()": "5790411e",
        "VALIDATE_STAKE()": "ed1957d9",
        "finalizeReport(uint256)": "fa9c48b7",
        "getVoteWeight(address)": "a730117e",
        "reportCount()": "185c6f84",
        "reports(uint256)": "c942adf7",
        "revoke_report(uint256)": "ca93ef19",
        "revoke_vote(uint256)": "6b38516f",
        "stakedTokens(address)": "a5b39cfb",
        "submitReport()": "8a44d91a",
        "token()": "fc0c546a",
        "validate(uint256,int8)": "42530abd"
    },
    "gasEstimates": {
        "creation": {
            "codeDepositCost": "777000",
            "executionCost": "infinite",
            "totalCost": "infinite"
        },
        "external": {
            "REPORT_REWARD()": "337",
            "REPORT_STAKE()": "227",
            "VALIDATE_REWARD()": "205",
            "VALIDATE_STAKE()": "403",
            "finalizeReport(uint256)": "infinite",
            "getVoteWeight(address)": "infinite",
            "reportCount()": "2253",
            "reports(uint256)": "8942",
            "revoke_report(uint256)": "infinite",
            "revoke_vote(uint256)": "infinite",
            "stakedTokens(address)": "2511",
            "submitReport()": "infinite",
            "token()": "2566",
            "validate(uint256,int8)": "infinite"
        },
        "internal": {
            "_negoutcome(uint256)": "infinite",
            "_posoutcome(uint256)": "infinite"
        }
    }
}