{
  "_format": "hh-sol-artifact-1",
  "contractName": "CampusToken",
  "sourceName": "contracts/CampusToken.sol",
  "abi": [
    {
      "inputs": [
        {
          "internalType": "address",
          "name": "recipient",
          "type": "address"
        },
        {
          "internalType": "address",
          "name": "initialOwner",
          "type": "address"
        }
      ],
      "stateMutability": "nonpayable",
      "type": "constructor"
    },
    {
      "inputs": [],
      "name": "ECDSAInvalidSignature",
      "type": "error"
    },
    {
      "inputs": [
        {
          "internalType": "uint256",
          "name": "length",
          "type": "uint256"
        }
      ],
      "name": "ECDSAInvalidSignatureLength",
      "type": "error"
    },
    {
      "inputs": [
        {
          "internalType": "bytes32",
          "name": "s",
          "type": "bytes32"
        }
      ],
      "name": "ECDSAInvalidSignatureS",
      "type": "error"
    },
    {
      "inputs": [
        {
          "internalType": "address",
          "name": "spender",
          "type": "address"
        },
        {
          "internalType": "uint256",
          "name": "allowance",
          "type": "uint256"
        },
        {
          "internalType": "uint256",
          "name": "needed",
          "type": "uint256"
        }
      ],
      "name": "ERC20InsufficientAllowance",
      "type": "error"
    },
    {
      "inputs": [
        {
          "internalType": "address",
          "name": "sender",
          "type": "address"
        },
        {
          "internalType": "uint256",
          "name": "balance",
          "type": "uint256"
        },
        {
          "internalType": "uint256",
          "name": "needed",
          "type": "uint256"
        }
      ],
      "name": "ERC20InsufficientBalance",
      "type": "error"
    },
    {
      "inputs": [
        {
          "internalType": "address",
          "name": "approver",
          "type": "address"
        }
      ],
      "name": "ERC20InvalidApprover",
      "type": "error"
    },
    {
      "inputs": [
        {
          "internalType": "address",
          "name": "receiver",
          "type": "address"
        }
      ],
      "name": "ERC20InvalidReceiver",
      "type": "error"
    },
    {
      "inputs": [
        {
          "internalType": "address",
          "name": "sender",
          "type": "address"
        }
      ],
      "name": "ERC20InvalidSender",
      "type": "error"
    },
    {
      "inputs": [
        {
          "internalType": "address",
          "name": "spender",
          "type": "address"
        }
      ],
      "name": "ERC20InvalidSpender",
      "type": "error"
    },
    {
      "inputs": [
        {
          "internalType": "uint256",
          "name": "deadline",
          "type": "uint256"
        }
      ],
      "name": "ERC2612ExpiredSignature",
      "type": "error"
    },
    {
      "inputs": [
        {
          "internalType": "address",
          "name": "signer",
          "type": "address"
        },
        {
          "internalType": "address",
          "name": "owner",
          "type": "address"
        }
      ],
      "name": "ERC2612InvalidSigner",
      "type": "error"
    },
    {
      "inputs": [
        {
          "internalType": "address",
          "name": "account",
          "type": "address"
        },
        {
          "internalType": "uint256",
          "name": "currentNonce",
          "type": "uint256"
        }
      ],
      "name": "InvalidAccountNonce",
      "type": "error"
    },
    {
      "inputs": [],
      "name": "InvalidShortString",
      "type": "error"
    },
    {
      "inputs": [
        {
          "internalType": "address",
          "name": "owner",
          "type": "address"
        }
      ],
      "name": "OwnableInvalidOwner",
      "type": "error"
    },
    {
      "inputs": [
        {
          "internalType": "address",
          "name": "account",
          "type": "address"
        }
      ],
      "name": "OwnableUnauthorizedAccount",
      "type": "error"
    },
    {
      "inputs": [
        {
          "internalType": "string",
          "name": "str",
          "type": "string"
        }
      ],
      "name": "StringTooLong",
      "type": "error"
    },
    {
      "anonymous": false,
      "inputs": [
        {
          "indexed": true,
          "internalType": "address",
          "name": "owner",
          "type": "address"
        },
        {
          "indexed": true,
          "internalType": "address",
          "name": "spender",
          "type": "address"
        },
        {
          "indexed": false,
          "internalType": "uint256",
          "name": "value",
          "type": "uint256"
        }
      ],
      "name": "Approval",
      "type": "event"
    },
    {
      "anonymous": false,
      "inputs": [],
      "name": "EIP712DomainChanged",
      "type": "event"
    },
    {
      "anonymous": false,
      "inputs": [
        {
          "indexed": true,
          "internalType": "address",
          "name": "previousOwner",
          "type": "address"
        },
        {
          "indexed": true,
          "internalType": "address",
          "name": "newOwner",
          "type": "address"
        }
      ],
      "name": "OwnershipTransferred",
      "type": "event"
    },
    {
      "anonymous": false,
      "inputs": [
        {
          "indexed": true,
          "internalType": "address",
          "name": "from",
          "type": "address"
        },
        {
          "indexed": true,
          "internalType": "address",
          "name": "to",
          "type": "address"
        },
        {
          "indexed": false,
          "internalType": "uint256",
          "name": "value",
          "type": "uint256"
        }
      ],
      "name": "Transfer",
      "type": "event"
    },
    {
      "inputs": [],
      "name": "DOMAIN_SEPARATOR",
      "outputs": [
        {
          "internalType": "bytes32",
          "name": "",
          "type": "bytes32"
        }
      ],
      "stateMutability": "view",
      "type": "function"
    },
    {
      "inputs": [
        {
          "internalType": "address",
          "name": "owner",
          "type": "address"
        },
        {
          "internalType": "address",
          "name": "spender",
          "type": "address"
        }
      ],
      "name": "allowance",
      "outputs": [
        {
          "internalType": "uint256",
          "name": "",
          "type": "uint256"
        }
      ],
      "stateMutability": "view",
      "type": "function"
    },
    {
      "inputs": [
        {
          "internalType": "address",
          "name": "spender",
          "type": "address"
        },
        {
          "internalType": "uint256",
          "name": "value",
          "type": "uint256"
        }
      ],
      "name": "approve",
      "outputs": [
        {
          "internalType": "bool",
          "name": "",
          "type": "bool"
        }
      ],
      "stateMutability": "nonpayable",
      "type": "function"
    },
    {
      "inputs": [
        {
          "internalType": "address",
          "name": "account",
          "type": "address"
        }
      ],
      "name": "balanceOf",
      "outputs": [
        {
          "internalType": "uint256",
          "name": "",
          "type": "uint256"
        }
      ],
      "stateMutability": "view",
      "type": "function"
    },
    {
      "inputs": [
        {
          "internalType": "address",
          "name": "user",
          "type": "address"
        },
        {
          "internalType": "uint256",
          "name": "amount",
          "type": "uint256"
        }
      ],
      "name": "burnTokens",
      "outputs": [],
      "stateMutability": "nonpayable",
      "type": "function"
    },
    {
      "inputs": [],
      "name": "decimals",
      "outputs": [
        {
          "internalType": "uint8",
          "name": "",
          "type": "uint8"
        }
      ],
      "stateMutability": "view",
      "type": "function"
    },
    {
      "inputs": [],
      "name": "eip712Domain",
      "outputs": [
        {
          "internalType": "bytes1",
          "name": "fields",
          "type": "bytes1"
        },
        {
          "internalType": "string",
          "name": "name",
          "type": "string"
        },
        {
          "internalType": "string",
          "name": "version",
          "type": "string"
        },
        {
          "internalType": "uint256",
          "name": "chainId",
          "type": "uint256"
        },
        {
          "internalType": "address",
          "name": "verifyingContract",
          "type": "address"
        },
        {
          "internalType": "bytes32",
          "name": "salt",
          "type": "bytes32"
        },
        {
          "internalType": "uint256[]",
          "name": "extensions",
          "type": "uint256[]"
        }
      ],
      "stateMutability": "view",
      "type": "function"
    },
    {
      "inputs": [
        {
          "internalType": "address",
          "name": "to",
          "type": "address"
        },
        {
          "internalType": "uint256",
          "name": "amount",
          "type": "uint256"
        }
      ],
      "name": "mint",
      "outputs": [],
      "stateMutability": "nonpayable",
      "type": "function"
    },
    {
      "inputs": [],
      "name": "name",
      "outputs": [
        {
          "internalType": "string",
          "name": "",
          "type": "string"
        }
      ],
      "stateMutability": "view",
      "type": "function"
    },
    {
      "inputs": [
        {
          "internalType": "address",
          "name": "owner",
          "type": "address"
        }
      ],
      "name": "nonces",
      "outputs": [
        {
          "internalType": "uint256",
          "name": "",
          "type": "uint256"
        }
      ],
      "stateMutability": "view",
      "type": "function"
    },
    {
      "inputs": [],
      "name": "owner",
      "outputs": [
        {
          "internalType": "address",
          "name": "",
          "type": "address"
        }
      ],
      "stateMutability": "view",
      "type": "function"
    },
    {
      "inputs": [
        {
          "internalType": "address",
          "name": "owner",
          "type": "address"
        },
        {
          "internalType": "address",
          "name": "spender",
          "type": "address"
        },
        {
          "internalType": "uint256",
          "name": "value",
          "type": "uint256"
        },
        {
          "internalType": "uint256",
          "name": "deadline",
          "type": "uint256"
        },
        {
          "internalType": "uint8",
          "name": "v",
          "type": "uint8"
        },
        {
          "internalType": "bytes32",
          "name": "r",
          "type": "bytes32"
        },
        {
          "internalType": "bytes32",
          "name": "s",
          "type": "bytes32"
        }
      ],
      "name": "permit",
      "outputs": [],
      "stateMutability": "nonpayable",
      "type": "function"
    },
    {
      "inputs": [],
      "name": "renounceOwnership",
      "outputs": [],
      "stateMutability": "nonpayable",
      "type": "function"
    },
    {
      "inputs": [
        {
          "internalType": "address",
          "name": "user",
          "type": "address"
        },
        {
          "internalType": "uint256",
          "name": "amount",
          "type": "uint256"
        }
      ],
      "name": "rewardTokens",
      "outputs": [],
      "stateMutability": "nonpayable",
      "type": "function"
    },
    {
      "inputs": [],
      "name": "symbol",
      "outputs": [
        {
          "internalType": "string",
          "name": "",
          "type": "string"
        }
      ],
      "stateMutability": "view",
      "type": "function"
    },
    {
      "inputs": [],
      "name": "totalSupply",
      "outputs": [
        {
          "internalType": "uint256",
          "name": "",
          "type": "uint256"
        }
      ],
      "stateMutability": "view",
      "type": "function"
    },
    {
      "inputs": [
        {
          "internalType": "address",
          "name": "to",
          "type": "address"
        },
        {
          "internalType": "uint256",
          "name": "value",
          "type": "uint256"
        }
      ],
      "name": "transfer",
      "outputs": [
        {
          "internalType": "bool",
          "name": "",
          "type": "bool"
        }
      ],
      "stateMutability": "nonpayable",
      "type": "function"
    },
    {
      "inputs": [
        {
          "internalType": "address",
          "name": "from",
          "type": "address"
        },
        {
          "internalType": "address",
          "name": "to",
          "type": "address"
        },
        {
          "internalType": "uint256",
          "name": "value",
          "type": "uint256"
        }
      ],
      "name": "transferFrom",
      "outputs": [
        {
          "internalType": "bool",
          "name": "",
          "type": "bool"
        }
      ],
      "stateMutability": "nonpayable",
      "type": "function"
    },
    {
      "inputs": [
        {
          "internalType": "address",
          "name": "newOwner",
          "type": "address"
        }
      ],
      "name": "transferOwnership",
      "outputs": [],
      "stateMutability": "nonpayable",
      "type": "function"
    }
  ],
  "bytecode": "0x61016060405234801561001157600080fd5b506040516130b73803806130b783398181016040528101906100339190610796565b6040518060400160405280600b81526020017f43616d707573546f6b656e000000000000000000000000000000000000000000815250806040518060400160405280600181526020017f3100000000000000000000000000000000000000000000000000000000000000815250836040518060400160405280600b81526020017f43616d707573546f6b656e0000000000000000000000000000000000000000008152506040518060400160405280600581526020017f4249545347000000000000000000000000000000000000000000000000000000815250816003908161011c9190610a26565b50806004908161012c9190610a26565b505050600073ffffffffffffffffffffffffffffffffffffffff168173ffffffffffffffffffffffffffffffffffffffff16036101a15760006040517f1e4fbdf70000000000000000000000000000000000000000000000000000000081526004016101989190610b07565b60405180910390fd5b6101b08161029a60201b60201c565b506101c560068361036060201b90919060201c565b61012081815250506101e160078261036060201b90919060201c565b6101408181525050818051906020012060e08181525050808051906020012061010081815250504660a0818152505061021e6103b060201b60201c565b608081815250503073ffffffffffffffffffffffffffffffffffffffff1660c08173ffffffffffffffffffffffffffffffffffffffff16815250505050506102938161026e61040b60201b60201c565b600a61027a9190610c91565b620f42406102889190610cdc565b61041460201b60201c565b5050610f5d565b6000600560009054906101000a900473ffffffffffffffffffffffffffffffffffffffff16905081600560006101000a81548173ffffffffffffffffffffffffffffffffffffffff021916908373ffffffffffffffffffffffffffffffffffffffff1602179055508173ffffffffffffffffffffffffffffffffffffffff168173ffffffffffffffffffffffffffffffffffffffff167f8be0079c531659141344cd1fd0a4f28419497f9722a3daafe3b4186f6b6457e060405160405180910390a35050565b60006020835110156103825761037b8361049c60201b60201c565b90506103aa565b826103928361050460201b60201c565b60000190816103a19190610a26565b5060ff60001b90505b92915050565b60007f8b73c3c69bb8fe3d512ecc4cf759cc79239f7b179b0ffacaa9a75d522b39400f60e0516101005146306040516020016103f0959493929190610d46565b60405160208183030381529060405280519060200120905090565b60006012905090565b600073ffffffffffffffffffffffffffffffffffffffff168273ffffffffffffffffffffffffffffffffffffffff16036104865760006040517fec442f0500000000000000000000000000000000000000000000000000000000815260040161047d9190610b07565b60405180910390fd5b6104986000838361050e60201b60201c565b5050565b600080829050601f815111156104e957826040517f305a27a90000000000000000000000000000000000000000000000000000000081526004016104e09190610e1e565b60405180910390fd5b8051816104f590610e70565b60001c1760001b915050919050565b6000819050919050565b600073ffffffffffffffffffffffffffffffffffffffff168373ffffffffffffffffffffffffffffffffffffffff16036105605780600260008282546105549190610ed7565b92505081905550610633565b60008060008573ffffffffffffffffffffffffffffffffffffffff1673ffffffffffffffffffffffffffffffffffffffff168152602001908152602001600020549050818110156105ec578381836040517fe450d38c0000000000000000000000000000000000000000000000000000000081526004016105e393929190610f0b565b60405180910390fd5b8181036000808673ffffffffffffffffffffffffffffffffffffffff1673ffffffffffffffffffffffffffffffffffffffff16815260200190815260200160002081905550505b600073ffffffffffffffffffffffffffffffffffffffff168273ffffffffffffffffffffffffffffffffffffffff160361067c57806002600082825403925050819055506106c9565b806000808473ffffffffffffffffffffffffffffffffffffffff1673ffffffffffffffffffffffffffffffffffffffff168152602001908152602001600020600082825401925050819055505b8173ffffffffffffffffffffffffffffffffffffffff168373ffffffffffffffffffffffffffffffffffffffff167fddf252ad1be2c89b69c2b068fc378daa952ba7f163c4a11628f55a4df523b3ef836040516107269190610f42565b60405180910390a3505050565b600080fd5b600073ffffffffffffffffffffffffffffffffffffffff82169050919050565b600061076382610738565b9050919050565b61077381610758565b811461077e57600080fd5b50565b6000815190506107908161076a565b92915050565b600080604083850312156107ad576107ac610733565b5b60006107bb85828601610781565b92505060206107cc85828601610781565b9150509250929050565b600081519050919050565b7f4e487b7100000000000000000000000000000000000000000000000000000000600052604160045260246000fd5b7f4e487b7100000000000000000000000000000000000000000000000000000000600052602260045260246000fd5b6000600282049050600182168061085757607f821691505b60208210810361086a57610869610810565b5b50919050565b60008190508160005260206000209050919050565b60006020601f8301049050919050565b600082821b905092915050565b6000600883026108d27fffffffffffffffffffffffffffffffffffffffffffffffffffffffffffffffff82610895565b6108dc8683610895565b95508019841693508086168417925050509392505050565b6000819050919050565b6000819050919050565b600061092361091e610919846108f4565b6108fe565b6108f4565b9050919050565b6000819050919050565b61093d83610908565b6109516109498261092a565b8484546108a2565b825550505050565b600090565b610966610959565b610971818484610934565b505050565b5b818110156109955761098a60008261095e565b600181019050610977565b5050565b601f8211156109da576109ab81610870565b6109b484610885565b810160208510156109c3578190505b6109d76109cf85610885565b830182610976565b50505b505050565b600082821c905092915050565b60006109fd600019846008026109df565b1980831691505092915050565b6000610a1683836109ec565b9150826002028217905092915050565b610a2f826107d6565b67ffffffffffffffff811115610a4857610a476107e1565b5b610a52825461083f565b610a5d828285610999565b600060209050601f831160018114610a905760008415610a7e578287015190505b610a888582610a0a565b865550610af0565b601f198416610a9e86610870565b60005b82811015610ac657848901518255600182019150602085019450602081019050610aa1565b86831015610ae35784890151610adf601f8916826109ec565b8355505b6001600288020188555050505b505050505050565b610b0181610758565b82525050565b6000602082019050610b1c6000830184610af8565b92915050565b7f4e487b7100000000000000000000000000000000000000000000000000000000600052601160045260246000fd5b60008160011c9050919050565b6000808291508390505b6001851115610ba857808604811115610b8457610b83610b22565b5b6001851615610b935780820291505b8081029050610ba185610b51565b9450610b68565b94509492505050565b600082610bc15760019050610c7d565b81610bcf5760009050610c7d565b8160018114610be55760028114610bef57610c1e565b6001915050610c7d565b60ff841115610c0157610c00610b22565b5b8360020a915084821115610c1857610c17610b22565b5b50610c7d565b5060208310610133831016604e8410600b8410161715610c535782820a905083811115610c4e57610c4d610b22565b5b610c7d565b610c608484846001610b5e565b92509050818404811115610c7757610c76610b22565b5b81810290505b9392505050565b600060ff82169050919050565b6000610c9c826108f4565b9150610ca783610c84565b9250610cd47fffffffffffffffffffffffffffffffffffffffffffffffffffffffffffffffff8484610bb1565b905092915050565b6000610ce7826108f4565b9150610cf2836108f4565b9250828202610d00816108f4565b91508282048414831517610d1757610d16610b22565b5b5092915050565b6000819050919050565b610d3181610d1e565b82525050565b610d40816108f4565b82525050565b600060a082019050610d5b6000830188610d28565b610d686020830187610d28565b610d756040830186610d28565b610d826060830185610d37565b610d8f6080830184610af8565b9695505050505050565b600082825260208201905092915050565b60005b83811015610dc8578082015181840152602081019050610dad565b60008484015250505050565b6000601f19601f8301169050919050565b6000610df0826107d6565b610dfa8185610d99565b9350610e0a818560208601610daa565b610e1381610dd4565b840191505092915050565b60006020820190508181036000830152610e388184610de5565b905092915050565b600081519050919050565b6000819050602082019050919050565b6000610e678251610d1e565b80915050919050565b6000610e7b82610e40565b82610e8584610e4b565b9050610e9081610e5b565b92506020821015610ed057610ecb7fffffffffffffffffffffffffffffffffffffffffffffffffffffffffffffffff83602003600802610895565b831692505b5050919050565b6000610ee2826108f4565b9150610eed836108f4565b9250828201905080821115610f0557610f04610b22565b5b92915050565b6000606082019050610f206000830186610af8565b610f2d6020830185610d37565b610f3a6040830184610d37565b949350505050565b6000602082019050610f576000830184610d37565b92915050565b60805160a05160c05160e051610100516101205161014051612100610fb76000396000610ebb01526000610e80015260006113d0015260006113af01526000610bac01526000610c0201526000610c2b01526121006000f3fe608060405234801561001057600080fd5b50600436106101215760003560e01c8063715018a6116100ad57806395d89b411161007157806395d89b41146102fe578063a9059cbb1461031c578063d505accf1461034c578063dd62ed3e14610368578063f2fde38b1461039857610121565b8063715018a6146102665780637ecebe001461027057806381a4af15146102a057806384b0196e146102bc5780638da5cb5b146102e057610121565b806323b872dd116100f457806323b872dd146101ae578063313ce567146101de5780633644e515146101fc57806340c10f191461021a57806370a082311461023657610121565b806306fdde0314610126578063095ea7b3146101445780630d1118ce1461017457806318160ddd14610190575b600080fd5b61012e6103b4565b60405161013b91906118bd565b60405180910390f35b61015e60048036038101906101599190611978565b610446565b60405161016b91906119d3565b60405180910390f35b61018e60048036038101906101899190611978565b610469565b005b6101986104c2565b6040516101a591906119fd565b60405180910390f35b6101c860048036038101906101c39190611a18565b6104cc565b6040516101d591906119d3565b60405180910390f35b6101e66104fb565b6040516101f39190611a87565b60405180910390f35b610204610504565b6040516102119190611abb565b60405180910390f35b610234600480360381019061022f9190611978565b610513565b005b610250600480360381019061024b9190611ad6565b610529565b60405161025d91906119fd565b60405180910390f35b61026e610571565b005b61028a60048036038101906102859190611ad6565b610585565b60405161029791906119fd565b60405180910390f35b6102ba60048036038101906102b59190611978565b610597565b005b6102c46105a5565b6040516102d79796959493929190611c0b565b60405180910390f35b6102e861064f565b6040516102f59190611c8f565b60405180910390f35b610306610679565b60405161031391906118bd565b60405180910390f35b61033660048036038101906103319190611978565b61070b565b60405161034391906119d3565b60405180910390f35b61036660048036038101906103619190611d02565b61072e565b005b610382600480360381019061037d9190611da4565b610876565b60405161038f91906119fd565b60405180910390f35b6103b260048036038101906103ad9190611ad6565b6108fd565b005b6060600380546103c390611e13565b80601f01602080910402602001604051908101604052809291908181526020018280546103ef90611e13565b801561043c5780601f106104115761010080835404028352916020019161043c565b820191906000526020600020905b81548152906001019060200180831161041f57829003601f168201915b5050505050905090565b600080610451610983565b905061045e81858561098b565b600191505092915050565b8061047383610529565b10156104b4576040517f08c379a00000000000000000000000000000000000000000000000000000000081526004016104ab90611e90565b60405180910390fd5b6104be828261099d565b5050565b6000600254905090565b6000806104d7610983565b90506104e4858285610a1f565b6104ef858585610ab4565b60019150509392505050565b60006012905090565b600061050e610ba8565b905090565b61051b610c5f565b6105258282610ce6565b5050565b60008060008373ffffffffffffffffffffffffffffffffffffffff1673ffffffffffffffffffffffffffffffffffffffff168152602001908152602001600020549050919050565b610579610c5f565b6105836000610d68565b565b600061059082610e2e565b9050919050565b6105a18282610ce6565b5050565b6000606080600080600060606105b9610e77565b6105c1610eb2565b46306000801b600067ffffffffffffffff8111156105e2576105e1611eb0565b5b6040519080825280602002602001820160405280156106105781602001602082028036833780820191505090505b507f0f00000000000000000000000000000000000000000000000000000000000000959493929190965096509650965096509650965090919293949596565b6000600560009054906101000a900473ffffffffffffffffffffffffffffffffffffffff16905090565b60606004805461068890611e13565b80601f01602080910402602001604051908101604052809291908181526020018280546106b490611e13565b80156107015780601f106106d657610100808354040283529160200191610701565b820191906000526020600020905b8154815290600101906020018083116106e457829003601f168201915b5050505050905090565b600080610716610983565b9050610723818585610ab4565b600191505092915050565b8342111561077357836040517f6279130200000000000000000000000000000000000000000000000000000000815260040161076a91906119fd565b60405180910390fd5b60007f6e71edae12b1b97f4d1f60370fef10105fa2faae0126114a169c64845d6126c98888886107a28c610eed565b896040516020016107b896959493929190611edf565b60405160208183030381529060405280519060200120905060006107db82610f44565b905060006107eb82878787610f5e565b90508973ffffffffffffffffffffffffffffffffffffffff168173ffffffffffffffffffffffffffffffffffffffff161461085f57808a6040517f4b800e46000000000000000000000000000000000000000000000000000000008152600401610856929190611f40565b60405180910390fd5b61086a8a8a8a61098b565b50505050505050505050565b6000600160008473ffffffffffffffffffffffffffffffffffffffff1673ffffffffffffffffffffffffffffffffffffffff16815260200190815260200160002060008373ffffffffffffffffffffffffffffffffffffffff1673ffffffffffffffffffffffffffffffffffffffff16815260200190815260200160002054905092915050565b610905610c5f565b600073ffffffffffffffffffffffffffffffffffffffff168173ffffffffffffffffffffffffffffffffffffffff16036109775760006040517f1e4fbdf700000000000000000000000000000000000000000000000000000000815260040161096e9190611c8f565b60405180910390fd5b61098081610d68565b50565b600033905090565b6109988383836001610f8e565b505050565b600073ffffffffffffffffffffffffffffffffffffffff168273ffffffffffffffffffffffffffffffffffffffff1603610a0f5760006040517f96c6fd1e000000000000000000000000000000000000000000000000000000008152600401610a069190611c8f565b60405180910390fd5b610a1b82600083611165565b5050565b6000610a2b8484610876565b90507fffffffffffffffffffffffffffffffffffffffffffffffffffffffffffffffff811015610aae5781811015610a9e578281836040517ffb8f41b2000000000000000000000000000000000000000000000000000000008152600401610a9593929190611f69565b60405180910390fd5b610aad84848484036000610f8e565b5b50505050565b600073ffffffffffffffffffffffffffffffffffffffff168373ffffffffffffffffffffffffffffffffffffffff1603610b265760006040517f96c6fd1e000000000000000000000000000000000000000000000000000000008152600401610b1d9190611c8f565b60405180910390fd5b600073ffffffffffffffffffffffffffffffffffffffff168273ffffffffffffffffffffffffffffffffffffffff1603610b985760006040517fec442f05000000000000000000000000000000000000000000000000000000008152600401610b8f9190611c8f565b60405180910390fd5b610ba3838383611165565b505050565b60007f000000000000000000000000000000000000000000000000000000000000000073ffffffffffffffffffffffffffffffffffffffff163073ffffffffffffffffffffffffffffffffffffffff16148015610c2457507f000000000000000000000000000000000000000000000000000000000000000046145b15610c51577f00000000000000000000000000000000000000000000000000000000000000009050610c5c565b610c5961138a565b90505b90565b610c67610983565b73ffffffffffffffffffffffffffffffffffffffff16610c8561064f565b73ffffffffffffffffffffffffffffffffffffffff1614610ce457610ca8610983565b6040517f118cdaa7000000000000000000000000000000000000000000000000000000008152600401610cdb9190611c8f565b60405180910390fd5b565b600073ffffffffffffffffffffffffffffffffffffffff168273ffffffffffffffffffffffffffffffffffffffff1603610d585760006040517fec442f05000000000000000000000000000000000000000000000000000000008152600401610d4f9190611c8f565b60405180910390fd5b610d6460008383611165565b5050565b6000600560009054906101000a900473ffffffffffffffffffffffffffffffffffffffff16905081600560006101000a81548173ffffffffffffffffffffffffffffffffffffffff021916908373ffffffffffffffffffffffffffffffffffffffff1602179055508173ffffffffffffffffffffffffffffffffffffffff168173ffffffffffffffffffffffffffffffffffffffff167f8be0079c531659141344cd1fd0a4f28419497f9722a3daafe3b4186f6b6457e060405160405180910390a35050565b6000600860008373ffffffffffffffffffffffffffffffffffffffff1673ffffffffffffffffffffffffffffffffffffffff168152602001908152602001600020549050919050565b6060610ead60067f000000000000000000000000000000000000000000000000000000000000000061142090919063ffffffff16565b905090565b6060610ee860077f000000000000000000000000000000000000000000000000000000000000000061142090919063ffffffff16565b905090565b6000600860008373ffffffffffffffffffffffffffffffffffffffff1673ffffffffffffffffffffffffffffffffffffffff1681526020019081526020016000206000815480929190600101919050559050919050565b6000610f57610f51610ba8565b836114d0565b9050919050565b600080600080610f7088888888611511565b925092509250610f808282611605565b829350505050949350505050565b600073ffffffffffffffffffffffffffffffffffffffff168473ffffffffffffffffffffffffffffffffffffffff16036110005760006040517fe602df05000000000000000000000000000000000000000000000000000000008152600401610ff79190611c8f565b60405180910390fd5b600073ffffffffffffffffffffffffffffffffffffffff168373ffffffffffffffffffffffffffffffffffffffff16036110725760006040517f94280d620000000000000000000000000000000000000000000000000000000081526004016110699190611c8f565b60405180910390fd5b81600160008673ffffffffffffffffffffffffffffffffffffffff1673ffffffffffffffffffffffffffffffffffffffff16815260200190815260200160002060008573ffffffffffffffffffffffffffffffffffffffff1673ffffffffffffffffffffffffffffffffffffffff16815260200190815260200160002081905550801561115f578273ffffffffffffffffffffffffffffffffffffffff168473ffffffffffffffffffffffffffffffffffffffff167f8c5be1e5ebec7d5bd14f71427d1e84f3dd0314c0f7b2291e5b200ac8c7c3b9258460405161115691906119fd565b60405180910390a35b50505050565b600073ffffffffffffffffffffffffffffffffffffffff168373ffffffffffffffffffffffffffffffffffffffff16036111b75780600260008282546111ab9190611fcf565b9250508190555061128a565b60008060008573ffffffffffffffffffffffffffffffffffffffff1673ffffffffffffffffffffffffffffffffffffffff16815260200190815260200160002054905081811015611243578381836040517fe450d38c00000000000000000000000000000000000000000000000000000000815260040161123a93929190611f69565b60405180910390fd5b8181036000808673ffffffffffffffffffffffffffffffffffffffff1673ffffffffffffffffffffffffffffffffffffffff16815260200190815260200160002081905550505b600073ffffffffffffffffffffffffffffffffffffffff168273ffffffffffffffffffffffffffffffffffffffff16036112d35780600260008282540392505081905550611320565b806000808473ffffffffffffffffffffffffffffffffffffffff1673ffffffffffffffffffffffffffffffffffffffff168152602001908152602001600020600082825401925050819055505b8173ffffffffffffffffffffffffffffffffffffffff168373ffffffffffffffffffffffffffffffffffffffff167fddf252ad1be2c89b69c2b068fc378daa952ba7f163c4a11628f55a4df523b3ef8360405161137d91906119fd565b60405180910390a3505050565b60007f8b73c3c69bb8fe3d512ecc4cf759cc79239f7b179b0ffacaa9a75d522b39400f7f00000000000000000000000000000000000000000000000000000000000000007f00000000000000000000000000000000000000000000000000000000000000004630604051602001611405959493929190612003565b60405160208183030381529060405280519060200120905090565b606060ff60001b831461143d5761143683611769565b90506114ca565b81805461144990611e13565b80601f016020809104026020016040519081016040528092919081815260200182805461147590611e13565b80156114c25780601f10611497576101008083540402835291602001916114c2565b820191906000526020600020905b8154815290600101906020018083116114a557829003601f168201915b505050505090505b92915050565b60006040517f190100000000000000000000000000000000000000000000000000000000000081528360028201528260228201526042812091505092915050565b60008060007f7fffffffffffffffffffffffffffffff5d576e7357a4501ddfe92f46681b20a08460001c11156115515760006003859250925092506115fb565b6000600188888888604051600081526020016040526040516115769493929190612056565b6020604051602081039080840390855afa158015611598573d6000803e3d6000fd5b505050602060405103519050600073ffffffffffffffffffffffffffffffffffffffff168173ffffffffffffffffffffffffffffffffffffffff16036115ec57600060016000801b935093509350506115fb565b8060008060001b935093509350505b9450945094915050565b600060038111156116195761161861209b565b5b82600381111561162c5761162b61209b565b5b031561176557600160038111156116465761164561209b565b5b8260038111156116595761165861209b565b5b03611690576040517ff645eedf00000000000000000000000000000000000000000000000000000000815260040160405180910390fd5b600260038111156116a4576116a361209b565b5b8260038111156116b7576116b661209b565b5b036116fc578060001c6040517ffce698f70000000000000000000000000000000000000000000000000000000081526004016116f391906119fd565b60405180910390fd5b60038081111561170f5761170e61209b565b5b8260038111156117225761172161209b565b5b0361176457806040517fd78bce0c00000000000000000000000000000000000000000000000000000000815260040161175b9190611abb565b60405180910390fd5b5b5050565b60606000611776836117dd565b90506000602067ffffffffffffffff81111561179557611794611eb0565b5b6040519080825280601f01601f1916602001820160405280156117c75781602001600182028036833780820191505090505b5090508181528360208201528092505050919050565b60008060ff8360001c169050601f811115611824576040517fb3512b0c00000000000000000000000000000000000000000000000000000000815260040160405180910390fd5b80915050919050565b600081519050919050565b600082825260208201905092915050565b60005b8381101561186757808201518184015260208101905061184c565b60008484015250505050565b6000601f19601f8301169050919050565b600061188f8261182d565b6118998185611838565b93506118a9818560208601611849565b6118b281611873565b840191505092915050565b600060208201905081810360008301526118d78184611884565b905092915050565b600080fd5b600073ffffffffffffffffffffffffffffffffffffffff82169050919050565b600061190f826118e4565b9050919050565b61191f81611904565b811461192a57600080fd5b50565b60008135905061193c81611916565b92915050565b6000819050919050565b61195581611942565b811461196057600080fd5b50565b6000813590506119728161194c565b92915050565b6000806040838503121561198f5761198e6118df565b5b600061199d8582860161192d565b92505060206119ae85828601611963565b9150509250929050565b60008115159050919050565b6119cd816119b8565b82525050565b60006020820190506119e860008301846119c4565b92915050565b6119f781611942565b82525050565b6000602082019050611a1260008301846119ee565b92915050565b600080600060608486031215611a3157611a306118df565b5b6000611a3f8682870161192d565b9350506020611a508682870161192d565b9250506040611a6186828701611963565b9150509250925092565b600060ff82169050919050565b611a8181611a6b565b82525050565b6000602082019050611a9c6000830184611a78565b92915050565b6000819050919050565b611ab581611aa2565b82525050565b6000602082019050611ad06000830184611aac565b92915050565b600060208284031215611aec57611aeb6118df565b5b6000611afa8482850161192d565b91505092915050565b60007fff0000000000000000000000000000000000000000000000000000000000000082169050919050565b611b3881611b03565b82525050565b611b4781611904565b82525050565b600081519050919050565b600082825260208201905092915050565b6000819050602082019050919050565b611b8281611942565b82525050565b6000611b948383611b79565b60208301905092915050565b6000602082019050919050565b6000611bb882611b4d565b611bc28185611b58565b9350611bcd83611b69565b8060005b83811015611bfe578151611be58882611b88565b9750611bf083611ba0565b925050600181019050611bd1565b5085935050505092915050565b600060e082019050611c20600083018a611b2f565b8181036020830152611c328189611884565b90508181036040830152611c468188611884565b9050611c5560608301876119ee565b611c626080830186611b3e565b611c6f60a0830185611aac565b81810360c0830152611c818184611bad565b905098975050505050505050565b6000602082019050611ca46000830184611b3e565b92915050565b611cb381611a6b565b8114611cbe57600080fd5b50565b600081359050611cd081611caa565b92915050565b611cdf81611aa2565b8114611cea57600080fd5b50565b600081359050611cfc81611cd6565b92915050565b600080600080600080600060e0888a031215611d2157611d206118df565b5b6000611d2f8a828b0161192d565b9750506020611d408a828b0161192d565b9650506040611d518a828b01611963565b9550506060611d628a828b01611963565b9450506080611d738a828b01611cc1565b93505060a0611d848a828b01611ced565b92505060c0611d958a828b01611ced565b91505092959891949750929550565b60008060408385031215611dbb57611dba6118df565b5b6000611dc98582860161192d565b9250506020611dda8582860161192d565b9150509250929050565b7f4e487b7100000000000000000000000000000000000000000000000000000000600052602260045260246000fd5b60006002820490506001821680611e2b57607f821691505b602082108103611e3e57611e3d611de4565b5b50919050565b7f496e73756666696369656e742062616c616e6365000000000000000000000000600082015250565b6000611e7a601483611838565b9150611e8582611e44565b602082019050919050565b60006020820190508181036000830152611ea981611e6d565b9050919050565b7f4e487b7100000000000000000000000000000000000000000000000000000000600052604160045260246000fd5b600060c082019050611ef46000830189611aac565b611f016020830188611b3e565b611f0e6040830187611b3e565b611f1b60608301866119ee565b611f2860808301856119ee565b611f3560a08301846119ee565b979650505050505050565b6000604082019050611f556000830185611b3e565b611f626020830184611b3e565b9392505050565b6000606082019050611f7e6000830186611b3e565b611f8b60208301856119ee565b611f9860408301846119ee565b949350505050565b7f4e487b7100000000000000000000000000000000000000000000000000000000600052601160045260246000fd5b6000611fda82611942565b9150611fe583611942565b9250828201905080821115611ffd57611ffc611fa0565b5b92915050565b600060a0820190506120186000830188611aac565b6120256020830187611aac565b6120326040830186611aac565b61203f60608301856119ee565b61204c6080830184611b3e565b9695505050505050565b600060808201905061206b6000830187611aac565b6120786020830186611a78565b6120856040830185611aac565b6120926060830184611aac565b95945050505050565b7f4e487b7100000000000000000000000000000000000000000000000000000000600052602160045260246000fdfea2646970667358221220e0f8a1b049ad90b50ba2fe15a90cffbbebeb4ad2982a307e13d2177a6f368bb164736f6c634300081c0033",
  "linkReferences": {},
  "deployedLinkReferences": {}
}