{
  "_format": "hh-sol-artifact-1",
  "contractName": "participate",
  "sourceName": "contracts/participate.sol",
  "abi": [
    {
      "inputs": [
        {
          "internalType": "address",
          "name": "tokenAddress",
          "type": "address"
        }
      ],
      "stateMutability": "nonpayable",
      "type": "constructor"
    },
    {
      "anonymous": false,
      "inputs": [
        {
          "indexed": false,
          "internalType": "uint256",
          "name": "reportId",
          "type": "uint256"
        },
        {
          "indexed": false,
          "internalType": "address",
          "name": "uploader",
          "type": "address"
        }
      ],
      "name": "ReportRevoked",
      "type": "event"
    },
    {
      "anonymous": false,
      "inputs": [
        {
          "indexed": false,
          "internalType": "uint256",
          "name": "reportId",
          "type": "uint256"
        },
        {
          "indexed": false,
          "internalType": "address",
          "name": "voter",
          "type": "address"
        }
      ],
      "name": "VoteRevoked",
      "type": "event"
    },
    {
      "inputs": [],
      "name": "REPORT_REWARD",
      "outputs": [
        {
          "internalType": "uint256",
          "name": "",
          "type": "uint256"
        }
      ],
      "stateMutability": "view",
      "type": "function"
    },
    {
      "inputs": [],
      "name": "REPORT_STAKE",
      "outputs": [
        {
          "internalType": "uint256",
          "name": "",
          "type": "uint256"
        }
      ],
      "stateMutability": "view",
      "type": "function"
    },
    {
      "inputs": [],
      "name": "VALIDATE_REWARD",
      "outputs": [
        {
          "internalType": "uint256",
          "name": "",
          "type": "uint256"
        }
      ],
      "stateMutability": "view",
      "type": "function"
    },
    {
      "inputs": [],
      "name": "VALIDATE_STAKE",
      "outputs": [
        {
          "internalType": "uint256",
          "name": "",
          "type": "uint256"
        }
      ],
      "stateMutability": "view",
      "type": "function"
    },
    {
      "inputs": [
        {
          "internalType": "uint256",
          "name": "reportId",
          "type": "uint256"
        }
      ],
      "name": "finalizeReport",
      "outputs": [],
      "stateMutability": "nonpayable",
      "type": "function"
    },
    {
      "inputs": [
        {
          "internalType": "address",
          "name": "user",
          "type": "address"
        }
      ],
      "name": "getVoteWeight",
      "outputs": [
        {
          "internalType": "uint256",
          "name": "",
          "type": "uint256"
        }
      ],
      "stateMutability": "view",
      "type": "function"
    },
    {
      "inputs": [],
      "name": "reportCount",
      "outputs": [
        {
          "internalType": "uint256",
          "name": "",
          "type": "uint256"
        }
      ],
      "stateMutability": "view",
      "type": "function"
    },
    {
      "inputs": [
        {
          "internalType": "uint256",
          "name": "",
          "type": "uint256"
        }
      ],
      "name": "reports",
      "outputs": [
        {
          "internalType": "uint256",
          "name": "id",
          "type": "uint256"
        },
        {
          "internalType": "address",
          "name": "uploader",
          "type": "address"
        },
        {
          "internalType": "int256",
          "name": "net_votes",
          "type": "int256"
        },
        {
          "internalType": "bool",
          "name": "validated",
          "type": "bool"
        }
      ],
      "stateMutability": "view",
      "type": "function"
    },
    {
      "inputs": [
        {
          "internalType": "uint256",
          "name": "reportId",
          "type": "uint256"
        }
      ],
      "name": "revoke_report",
      "outputs": [],
      "stateMutability": "nonpayable",
      "type": "function"
    },
    {
      "inputs": [
        {
          "internalType": "uint256",
          "name": "reportId",
          "type": "uint256"
        }
      ],
      "name": "revoke_vote",
      "outputs": [],
      "stateMutability": "nonpayable",
      "type": "function"
    },
    {
      "inputs": [
        {
          "internalType": "address",
          "name": "",
          "type": "address"
        }
      ],
      "name": "stakedTokens",
      "outputs": [
        {
          "internalType": "uint256",
          "name": "",
          "type": "uint256"
        }
      ],
      "stateMutability": "view",
      "type": "function"
    },
    {
      "inputs": [
        {
          "internalType": "uint256",
          "name": "reportId",
          "type": "uint256"
        }
      ],
      "name": "submitReport",
      "outputs": [],
      "stateMutability": "nonpayable",
      "type": "function"
    },
    {
      "inputs": [],
      "name": "token",
      "outputs": [
        {
          "internalType": "contract CampusToken",
          "name": "",
          "type": "address"
        }
      ],
      "stateMutability": "view",
      "type": "function"
    },
    {
      "inputs": [
        {
          "internalType": "uint256",
          "name": "reportId",
          "type": "uint256"
        },
        {
          "internalType": "int8",
          "name": "vote",
          "type": "int8"
        }
      ],
      "name": "validate",
      "outputs": [],
      "stateMutability": "nonpayable",
      "type": "function"
    }
  ],
  "bytecode": "0x6080604052600060015534801561001557600080fd5b50604051612064380380612064833981810160405281019061003791906100e0565b806000806101000a81548173ffffffffffffffffffffffffffffffffffffffff021916908373ffffffffffffffffffffffffffffffffffffffff1602179055505061010d565b600080fd5b600073ffffffffffffffffffffffffffffffffffffffff82169050919050565b60006100ad82610082565b9050919050565b6100bd816100a2565b81146100c857600080fd5b50565b6000815190506100da816100b4565b92915050565b6000602082840312156100f6576100f561007d565b5b6000610104848285016100cb565b91505092915050565b611f488061011c6000396000f3fe608060405234801561001057600080fd5b50600436106100ea5760003560e01c8063b12f55eb1161008c578063ed1957d911610066578063ed1957d91461024e578063f26eb2771461026c578063fa9c48b714610288578063fc0c546a146102a4576100ea565b8063b12f55eb146101e1578063c942adf7146101ff578063ca93ef1914610232576100ea565b80635ff2c42c116100c85780635ff2c42c146101475780636b38516f14610165578063a5b39cfb14610181578063a730117e146101b1576100ea565b8063185c6f84146100ef57806342530abd1461010d5780635790411e14610129575b600080fd5b6100f76102c2565b60405161010491906116ac565b60405180910390f35b61012760048036038101906101229190611731565b6102c8565b005b6101316106be565b60405161013e91906116ac565b60405180910390f35b61014f6106ca565b60405161015c91906116ac565b60405180910390f35b61017f600480360381019061017a9190611771565b6106d7565b005b61019b600480360381019061019691906117fc565b61099d565b6040516101a891906116ac565b60405180910390f35b6101cb60048036038101906101c691906117fc565b6109b5565b6040516101d891906116ac565b60405180910390f35b6101e9610a95565b6040516101f691906116ac565b60405180910390f35b61021960048036038101906102149190611771565b610aa1565b604051610229949392919061186c565b60405180910390f35b61024c60048036038101906102479190611771565b610afe565b005b610256610dc0565b60405161026391906116ac565b60405180910390f35b61028660048036038101906102819190611771565b610dcd565b005b6102a2600480360381019061029d9190611771565b61104d565b005b6102ac61117f565b6040516102b99190611910565b60405180910390f35b60015481565b60006002600084815260200190815260200160002090506802b5e3af16b188000060008054906101000a900473ffffffffffffffffffffffffffffffffffffffff1673ffffffffffffffffffffffffffffffffffffffff166370a08231336040518263ffffffff1660e01b8152600401610342919061192b565b602060405180830381865afa15801561035f573d6000803e3d6000fd5b505050506040513d601f19601f82011682018060405250810190610383919061195b565b10156103c4576040517f08c379a00000000000000000000000000000000000000000000000000000000081526004016103bb906119e5565b60405180910390fd5b60018260000b14806103f857507fffffffffffffffffffffffffffffffffffffffffffffffffffffffffffffffff8260000b145b610437576040517f08c379a000000000000000000000000000000000000000000000000000000000815260040161042e90611a51565b60405180910390fd5b60008160050160003373ffffffffffffffffffffffffffffffffffffffff1673ffffffffffffffffffffffffffffffffffffffff16815260200190815260200160002060009054906101000a900460000b60000b146104cb576040517f08c379a00000000000000000000000000000000000000000000000000000000081526004016104c290611abd565b60405180910390fd5b6802b5e3af16b1880000600360003373ffffffffffffffffffffffffffffffffffffffff1673ffffffffffffffffffffffffffffffffffffffff16815260200190815260200160002060008282546105239190611b0c565b9250508190555060008054906101000a900473ffffffffffffffffffffffffffffffffffffffff1673ffffffffffffffffffffffffffffffffffffffff16630d1118ce336802b5e3af16b18800006040518363ffffffff1660e01b815260040161058e929190611b40565b600060405180830381600087803b1580156105a857600080fd5b505af11580156105bc573d6000803e3d6000fd5b5050505060006105cb336109b5565b9050808360000b6105dc9190611b69565b8260020160008282546105ef9190611be1565b92505081905550828260050160003373ffffffffffffffffffffffffffffffffffffffff1673ffffffffffffffffffffffffffffffffffffffff16815260200190815260200160002060006101000a81548160ff021916908360000b60ff16021790555081600401339080600181540180825580915050600190039060005260206000200160009091909190916101000a81548173ffffffffffffffffffffffffffffffffffffffff021916908373ffffffffffffffffffffffffffffffffffffffff16021790555050505050565b678ac7230489e8000081565b68056bc75e2d6310000081565b600060026000838152602001908152602001600020905060008160050160003373ffffffffffffffffffffffffffffffffffffffff1673ffffffffffffffffffffffffffffffffffffffff16815260200190815260200160002060009054906101000a900460000b60000b03610782576040517f08c379a000000000000000000000000000000000000000000000000000000000815260040161077990611c97565b60405180910390fd5b60008160050160003373ffffffffffffffffffffffffffffffffffffffff1673ffffffffffffffffffffffffffffffffffffffff16815260200190815260200160002060009054906101000a900460000b90506802b5e3af16b1880000600360003373ffffffffffffffffffffffffffffffffffffffff1673ffffffffffffffffffffffffffffffffffffffff168152602001908152602001600020600082825461082d9190611cb7565b9250508190555060008054906101000a900473ffffffffffffffffffffffffffffffffffffffff1673ffffffffffffffffffffffffffffffffffffffff166381a4af15336802b5e3af16b18800006040518363ffffffff1660e01b8152600401610898929190611b40565b600060405180830381600087803b1580156108b257600080fd5b505af11580156108c6573d6000803e3d6000fd5b5050505060006108d5336109b5565b9050808260000b6108e69190611b69565b8360020160008282546108f99190611ceb565b9250508190555060008360050160003373ffffffffffffffffffffffffffffffffffffffff1673ffffffffffffffffffffffffffffffffffffffff16815260200190815260200160002060006101000a81548160ff021916908360000b60ff1602179055507fb6c537d4d5cd45cf3082c7458c198a25e5e551611604a18df485c806c2125c40843360405161098f929190611d2e565b60405180910390a150505050565b60036020528060005260406000206000915090505481565b60008060008054906101000a900473ffffffffffffffffffffffffffffffffffffffff1673ffffffffffffffffffffffffffffffffffffffff166370a08231846040518263ffffffff1660e01b8152600401610a11919061192b565b602060405180830381865afa158015610a2e573d6000803e3d6000fd5b505050506040513d601f19601f82011682018060405250810190610a52919061195b565b9050683635c9adc5dea00000811115610a6f576003915050610a90565b681b1ae4d6e2ef500000811115610a8a576001915050610a90565b60019150505b919050565b674563918244f4000081565b60026020528060005260406000206000915090508060000154908060010160009054906101000a900473ffffffffffffffffffffffffffffffffffffffff16908060020154908060030160009054906101000a900460ff16905084565b60006002600083815260200190815260200160002090508060010160009054906101000a900473ffffffffffffffffffffffffffffffffffffffff1673ffffffffffffffffffffffffffffffffffffffff163373ffffffffffffffffffffffffffffffffffffffff1614610ba7576040517f08c379a0000000000000000000000000000000000000000000000000000000008152600401610b9e90611da3565b60405180910390fd5b8060030160009054906101000a900460ff1615610bf9576040517f08c379a0000000000000000000000000000000000000000000000000000000008152600401610bf090611e0f565b60405180910390fd5b60008054906101000a900473ffffffffffffffffffffffffffffffffffffffff1673ffffffffffffffffffffffffffffffffffffffff166381a4af158260010160009054906101000a900473ffffffffffffffffffffffffffffffffffffffff1668056bc75e2d631000006040518363ffffffff1660e01b8152600401610c81929190611b40565b600060405180830381600087803b158015610c9b57600080fd5b505af1158015610caf573d6000803e3d6000fd5b5050505068056bc75e2d63100000600360003373ffffffffffffffffffffffffffffffffffffffff1673ffffffffffffffffffffffffffffffffffffffff1681526020019081526020016000206000828254610d0b9190611cb7565b92505081905550600260008381526020019081526020016000206000808201600090556001820160006101000a81549073ffffffffffffffffffffffffffffffffffffffff021916905560028201600090556003820160006101000a81549060ff0219169055600482016000610d819190611655565b50507fd70d884c5bc88c9a05d6a19993baba89fc62d9c3a7a02925bd6a748b2051d0bf8233604051610db4929190611d2e565b60405180910390a15050565b6802b5e3af16b188000081565b68056bc75e2d6310000060008054906101000a900473ffffffffffffffffffffffffffffffffffffffff1673ffffffffffffffffffffffffffffffffffffffff166370a08231336040518263ffffffff1660e01b8152600401610e30919061192b565b602060405180830381865afa158015610e4d573d6000803e3d6000fd5b505050506040513d601f19601f82011682018060405250810190610e71919061195b565b1015610eb2576040517f08c379a0000000000000000000000000000000000000000000000000000000008152600401610ea9906119e5565b60405180910390fd5b60008054906101000a900473ffffffffffffffffffffffffffffffffffffffff1673ffffffffffffffffffffffffffffffffffffffff16630d1118ce3368056bc75e2d631000006040518363ffffffff1660e01b8152600401610f16929190611b40565b600060405180830381600087803b158015610f3057600080fd5b505af1158015610f44573d6000803e3d6000fd5b5050505068056bc75e2d63100000600360003373ffffffffffffffffffffffffffffffffffffffff1673ffffffffffffffffffffffffffffffffffffffff1681526020019081526020016000206000828254610fa09190611b0c565b9250508190555060016000815480929190610fba90611e2f565b91905055506000600260008381526020019081526020016000209050818160000181905550338160010160006101000a81548173ffffffffffffffffffffffffffffffffffffffff021916908373ffffffffffffffffffffffffffffffffffffffff1602179055506000816002018190555060008160030160006101000a81548160ff0219169083151502179055505050565b60006002600083815260200190815260200160002090508060030160009054906101000a900460ff16156110b6576040517f08c379a00000000000000000000000000000000000000000000000000000000081526004016110ad90611ec3565b60405180910390fd5b60018160030160006101000a81548160ff02191690831515021790555068056bc75e2d63100000600360008360010160009054906101000a900473ffffffffffffffffffffffffffffffffffffffff1673ffffffffffffffffffffffffffffffffffffffff1673ffffffffffffffffffffffffffffffffffffffff168152602001908152602001600020600082825461114f9190611cb7565b925050819055506000816002015413156111715761116c826111a3565b61117b565b61117a82611453565b5b5050565b60008054906101000a900473ffffffffffffffffffffffffffffffffffffffff1681565b600060026000838152602001908152602001600020905060008054906101000a900473ffffffffffffffffffffffffffffffffffffffff1673ffffffffffffffffffffffffffffffffffffffff166381a4af158260010160009054906101000a900473ffffffffffffffffffffffffffffffffffffffff1668056bc75e2d63100000674563918244f400006112389190611b0c565b6040518363ffffffff1660e01b8152600401611255929190611b40565b600060405180830381600087803b15801561126f57600080fd5b505af1158015611283573d6000803e3d6000fd5b5050505060005b816004018054905081101561144e5760008260040182815481106112b1576112b0611ee3565b5b9060005260206000200160009054906101000a900473ffffffffffffffffffffffffffffffffffffffff16905060018360050160008373ffffffffffffffffffffffffffffffffffffffff1673ffffffffffffffffffffffffffffffffffffffff16815260200190815260200160002060009054906101000a900460000b60000b036113e15760008054906101000a900473ffffffffffffffffffffffffffffffffffffffff1673ffffffffffffffffffffffffffffffffffffffff166381a4af15826802b5e3af16b1880000678ac7230489e800006113919190611b0c565b6040518363ffffffff1660e01b81526004016113ae929190611b40565b600060405180830381600087803b1580156113c857600080fd5b505af11580156113dc573d6000803e3d6000fd5b505050505b6802b5e3af16b1880000600360008373ffffffffffffffffffffffffffffffffffffffff1673ffffffffffffffffffffffffffffffffffffffff16815260200190815260200160002060008282546114399190611cb7565b9250508190555050808060010191505061128a565b505050565b600060026000838152602001908152602001600020905060005b816004018054905081101561165057600082600401828154811061149457611493611ee3565b5b9060005260206000200160009054906101000a900473ffffffffffffffffffffffffffffffffffffffff1690507fffffffffffffffffffffffffffffffffffffffffffffffffffffffffffffffff8360050160008373ffffffffffffffffffffffffffffffffffffffff1673ffffffffffffffffffffffffffffffffffffffff16815260200190815260200160002060009054906101000a900460000b60000b036115e35760008054906101000a900473ffffffffffffffffffffffffffffffffffffffff1673ffffffffffffffffffffffffffffffffffffffff166381a4af15826802b5e3af16b1880000678ac7230489e800006115939190611b0c565b6040518363ffffffff1660e01b81526004016115b0929190611b40565b600060405180830381600087803b1580156115ca57600080fd5b505af11580156115de573d6000803e3d6000fd5b505050505b6802b5e3af16b1880000600360008373ffffffffffffffffffffffffffffffffffffffff1673ffffffffffffffffffffffffffffffffffffffff168152602001908152602001600020600082825461163b9190611cb7565b9250508190555050808060010191505061146d565b505050565b50805460008255906000526020600020908101906116739190611676565b50565b5b8082111561168f576000816000905550600101611677565b5090565b6000819050919050565b6116a681611693565b82525050565b60006020820190506116c1600083018461169d565b92915050565b600080fd5b6116d581611693565b81146116e057600080fd5b50565b6000813590506116f2816116cc565b92915050565b60008160000b9050919050565b61170e816116f8565b811461171957600080fd5b50565b60008135905061172b81611705565b92915050565b60008060408385031215611748576117476116c7565b5b6000611756858286016116e3565b92505060206117678582860161171c565b9150509250929050565b600060208284031215611787576117866116c7565b5b6000611795848285016116e3565b91505092915050565b600073ffffffffffffffffffffffffffffffffffffffff82169050919050565b60006117c98261179e565b9050919050565b6117d9816117be565b81146117e457600080fd5b50565b6000813590506117f6816117d0565b92915050565b600060208284031215611812576118116116c7565b5b6000611820848285016117e7565b91505092915050565b611832816117be565b82525050565b6000819050919050565b61184b81611838565b82525050565b60008115159050919050565b61186681611851565b82525050565b6000608082019050611881600083018761169d565b61188e6020830186611829565b61189b6040830185611842565b6118a8606083018461185d565b95945050505050565b6000819050919050565b60006118d66118d16118cc8461179e565b6118b1565b61179e565b9050919050565b60006118e8826118bb565b9050919050565b60006118fa826118dd565b9050919050565b61190a816118ef565b82525050565b60006020820190506119256000830184611901565b92915050565b60006020820190506119406000830184611829565b92915050565b600081519050611955816116cc565b92915050565b600060208284031215611971576119706116c7565b5b600061197f84828501611946565b91505092915050565b600082825260208201905092915050565b7f496e73756666696369656e74207374616b650000000000000000000000000000600082015250565b60006119cf601283611988565b91506119da82611999565b602082019050919050565b600060208201905081810360008301526119fe816119c2565b9050919050565b7f496e76616c696420766f74650000000000000000000000000000000000000000600082015250565b6000611a3b600c83611988565b9150611a4682611a05565b602082019050919050565b60006020820190508181036000830152611a6a81611a2e565b9050919050565b7f416c726561647920766f74656400000000000000000000000000000000000000600082015250565b6000611aa7600d83611988565b9150611ab282611a71565b602082019050919050565b60006020820190508181036000830152611ad681611a9a565b9050919050565b7f4e487b7100000000000000000000000000000000000000000000000000000000600052601160045260246000fd5b6000611b1782611693565b9150611b2283611693565b9250828201905080821115611b3a57611b39611add565b5b92915050565b6000604082019050611b556000830185611829565b611b62602083018461169d565b9392505050565b6000611b7482611838565b9150611b7f83611838565b9250828202611b8d81611838565b91507f80000000000000000000000000000000000000000000000000000000000000008414600084121615611bc557611bc4611add565b5b8282058414831517611bda57611bd9611add565b5b5092915050565b6000611bec82611838565b9150611bf783611838565b925082820190508281121560008312168382126000841215161715611c1f57611c1e611add565b5b92915050565b7f596f752068617665206e6f7420766f746564206f7220616c726561647920726560008201527f766f6b6564000000000000000000000000000000000000000000000000000000602082015250565b6000611c81602583611988565b9150611c8c82611c25565b604082019050919050565b60006020820190508181036000830152611cb081611c74565b9050919050565b6000611cc282611693565b9150611ccd83611693565b9250828203905081811115611ce557611ce4611add565b5b92915050565b6000611cf682611838565b9150611d0183611838565b9250828203905081811260008412168282136000851215161715611d2857611d27611add565b5b92915050565b6000604082019050611d43600083018561169d565b611d506020830184611829565b9392505050565b7f4f6e6c792075706c6f616465722063616e207265766f6b650000000000000000600082015250565b6000611d8d601883611988565b9150611d9882611d57565b602082019050919050565b60006020820190508181036000830152611dbc81611d80565b9050919050565b7f5265706f727420616c72656164792066696e616c697a65640000000000000000600082015250565b6000611df9601883611988565b9150611e0482611dc3565b602082019050919050565b60006020820190508181036000830152611e2881611dec565b9050919050565b6000611e3a82611693565b91507fffffffffffffffffffffffffffffffffffffffffffffffffffffffffffffffff8203611e6c57611e6b611add565b5b600182019050919050565b7f416c72656164792076616c696461746564000000000000000000000000000000600082015250565b6000611ead601183611988565b9150611eb882611e77565b602082019050919050565b60006020820190508181036000830152611edc81611ea0565b9050919050565b7f4e487b7100000000000000000000000000000000000000000000000000000000600052603260045260246000fdfea2646970667358221220392f4f3ac89b6225c27a5f2058842034a96e1362f10ae01e3eb8201057a91c4664736f6c634300081c0033",
  "linkReferences": {},
  "deployedLinkReferences": {}
}