{
  "_format": "hh-sol-artifact-1",
  "contractName": "participate",
  "sourceName": "contracts/participate.sol",
  "abi": [
    {
      "inputs": [
        {
          "internalType": "address",
          "name": "tokenAddress",
          "type": "address"
        }
      ],
      "stateMutability": "nonpayable",
      "type": "constructor"
    },
    {
      "anonymous": false,
      "inputs": [
        {
          "indexed": false,
          "internalType": "uint256",
          "name": "reportId",
          "type": "uint256"
        },
        {
          "indexed": false,
          "internalType": "address",
          "name": "uploader",
          "type": "address"
        }
      ],
      "name": "ReportRevoked",
      "type": "event"
    },
    {
      "anonymous": false,
      "inputs": [
        {
          "indexed": false,
          "internalType": "uint256",
          "name": "reportId",
          "type": "uint256"
        },
        {
          "indexed": false,
          "internalType": "address",
          "name": "voter",
          "type": "address"
        }
      ],
      "name": "VoteRevoked",
      "type": "event"
    },
    {
      "inputs": [],
      "name": "REPORT_REWARD",
      "outputs": [
        {
          "internalType": "uint256",
          "name": "",
          "type": "uint256"
        }
      ],
      "stateMutability": "view",
      "type": "function"
    },
    {
      "inputs": [],
      "name": "REPORT_STAKE",
      "outputs": [
        {
          "internalType": "uint256",
          "name": "",
          "type": "uint256"
        }
      ],
      "stateMutability": "view",
      "type": "function"
    },
    {
      "inputs": [],
      "name": "VALIDATE_REWARD",
      "outputs": [
        {
          "internalType": "uint256",
          "name": "",
          "type": "uint256"
        }
      ],
      "stateMutability": "view",
      "type": "function"
    },
    {
      "inputs": [],
      "name": "VALIDATE_STAKE",
      "outputs": [
        {
          "internalType": "uint256",
          "name": "",
          "type": "uint256"
        }
      ],
      "stateMutability": "view",
      "type": "function"
    },
    {
      "inputs": [
        {
          "internalType": "uint256",
          "name": "reportId",
          "type": "uint256"
        }
      ],
      "name": "finalizeReport",
      "outputs": [],
      "stateMutability": "nonpayable",
      "type": "function"
    },
    {
      "inputs": [
        {
          "internalType": "address",
          "name": "user",
          "type": "address"
        }
      ],
      "name": "getVoteWeight",
      "outputs": [
        {
          "internalType": "uint256",
          "name": "",
          "type": "uint256"
        }
      ],
      "stateMutability": "view",
      "type": "function"
    },
    {
      "inputs": [],
      "name": "reportCount",
      "outputs": [
        {
          "internalType": "uint256",
          "name": "",
          "type": "uint256"
        }
      ],
      "stateMutability": "view",
      "type": "function"
    },
    {
      "inputs": [
        {
          "internalType": "uint256",
          "name": "",
          "type": "uint256"
        }
      ],
      "name": "reports",
      "outputs": [
        {
          "internalType": "uint256",
          "name": "id",
          "type": "uint256"
        },
        {
          "internalType": "address",
          "name": "uploader",
          "type": "address"
        },
        {
          "internalType": "int256",
          "name": "net_votes",
          "type": "int256"
        },
        {
          "internalType": "bool",
          "name": "validated",
          "type": "bool"
        }
      ],
      "stateMutability": "view",
      "type": "function"
    },
    {
      "inputs": [
        {
          "internalType": "uint256",
          "name": "reportId",
          "type": "uint256"
        }
      ],
      "name": "revoke_report",
      "outputs": [],
      "stateMutability": "nonpayable",
      "type": "function"
    },
    {
      "inputs": [
        {
          "internalType": "uint256",
          "name": "reportId",
          "type": "uint256"
        }
      ],
      "name": "revoke_vote",
      "outputs": [],
      "stateMutability": "nonpayable",
      "type": "function"
    },
    {
      "inputs": [
        {
          "internalType": "address",
          "name": "",
          "type": "address"
        }
      ],
      "name": "stakedTokens",
      "outputs": [
        {
          "internalType": "uint256",
          "name": "",
          "type": "uint256"
        }
      ],
      "stateMutability": "view",
      "type": "function"
    },
    {
      "inputs": [],
      "name": "submitReport",
      "outputs": [],
      "stateMutability": "nonpayable",
      "type": "function"
    },
    {
      "inputs": [],
      "name": "token",
      "outputs": [
        {
          "internalType": "contract CampusToken",
          "name": "",
          "type": "address"
        }
      ],
      "stateMutability": "view",
      "type": "function"
    },
    {
      "inputs": [
        {
          "internalType": "uint256",
          "name": "reportId",
          "type": "uint256"
        },
        {
          "internalType": "int8",
          "name": "vote",
          "type": "int8"
        }
      ],
      "name": "validate",
      "outputs": [],
      "stateMutability": "nonpayable",
      "type": "function"
    }
  ],
  "bytecode": "0x6080604052600060015534801561001557600080fd5b50604051612055380380612055833981810160405281019061003791906100e0565b806000806101000a81548173ffffffffffffffffffffffffffffffffffffffff021916908373ffffffffffffffffffffffffffffffffffffffff1602179055505061010d565b600080fd5b600073ffffffffffffffffffffffffffffffffffffffff82169050919050565b60006100ad82610082565b9050919050565b6100bd816100a2565b81146100c857600080fd5b50565b6000815190506100da816100b4565b92915050565b6000602082840312156100f6576100f561007d565b5b6000610104848285016100cb565b91505092915050565b611f398061011c6000396000f3fe608060405234801561001057600080fd5b50600436106100ea5760003560e01c8063a730117e1161008c578063ca93ef1911610066578063ca93ef191461023c578063ed1957d914610258578063fa9c48b714610276578063fc0c546a14610292576100ea565b8063a730117e146101bb578063b12f55eb146101eb578063c942adf714610209576100ea565b80635ff2c42c116100c85780635ff2c42c146101475780636b38516f146101655780638a44d91a14610181578063a5b39cfb1461018b576100ea565b8063185c6f84146100ef57806342530abd1461010d5780635790411e14610129575b600080fd5b6100f76102b0565b604051610104919061169d565b60405180910390f35b61012760048036038101906101229190611722565b6102b6565b005b6101316106ac565b60405161013e919061169d565b60405180910390f35b61014f6106b8565b60405161015c919061169d565b60405180910390f35b61017f600480360381019061017a9190611762565b6106c5565b005b61018961098b565b005b6101a560048036038101906101a091906117ed565b610c0e565b6040516101b2919061169d565b60405180910390f35b6101d560048036038101906101d091906117ed565b610c26565b6040516101e2919061169d565b60405180910390f35b6101f3610d06565b604051610200919061169d565b60405180910390f35b610223600480360381019061021e9190611762565b610d12565b604051610233949392919061185d565b60405180910390f35b61025660048036038101906102519190611762565b610d6f565b005b610260611031565b60405161026d919061169d565b60405180910390f35b610290600480360381019061028b9190611762565b61103e565b005b61029a611170565b6040516102a79190611901565b60405180910390f35b60015481565b60006002600084815260200190815260200160002090506802b5e3af16b188000060008054906101000a900473ffffffffffffffffffffffffffffffffffffffff1673ffffffffffffffffffffffffffffffffffffffff166370a08231336040518263ffffffff1660e01b8152600401610330919061191c565b602060405180830381865afa15801561034d573d6000803e3d6000fd5b505050506040513d601f19601f82011682018060405250810190610371919061194c565b10156103b2576040517f08c379a00000000000000000000000000000000000000000000000000000000081526004016103a9906119d6565b60405180910390fd5b60018260000b14806103e657507fffffffffffffffffffffffffffffffffffffffffffffffffffffffffffffffff8260000b145b610425576040517f08c379a000000000000000000000000000000000000000000000000000000000815260040161041c90611a42565b60405180910390fd5b60008160050160003373ffffffffffffffffffffffffffffffffffffffff1673ffffffffffffffffffffffffffffffffffffffff16815260200190815260200160002060009054906101000a900460000b60000b146104b9576040517f08c379a00000000000000000000000000000000000000000000000000000000081526004016104b090611aae565b60405180910390fd5b6802b5e3af16b1880000600360003373ffffffffffffffffffffffffffffffffffffffff1673ffffffffffffffffffffffffffffffffffffffff16815260200190815260200160002060008282546105119190611afd565b9250508190555060008054906101000a900473ffffffffffffffffffffffffffffffffffffffff1673ffffffffffffffffffffffffffffffffffffffff16630d1118ce336802b5e3af16b18800006040518363ffffffff1660e01b815260040161057c929190611b31565b600060405180830381600087803b15801561059657600080fd5b505af11580156105aa573d6000803e3d6000fd5b5050505060006105b933610c26565b9050808360000b6105ca9190611b5a565b8260020160008282546105dd9190611bd2565b92505081905550828260050160003373ffffffffffffffffffffffffffffffffffffffff1673ffffffffffffffffffffffffffffffffffffffff16815260200190815260200160002060006101000a81548160ff021916908360000b60ff16021790555081600401339080600181540180825580915050600190039060005260206000200160009091909190916101000a81548173ffffffffffffffffffffffffffffffffffffffff021916908373ffffffffffffffffffffffffffffffffffffffff16021790555050505050565b678ac7230489e8000081565b68056bc75e2d6310000081565b600060026000838152602001908152602001600020905060008160050160003373ffffffffffffffffffffffffffffffffffffffff1673ffffffffffffffffffffffffffffffffffffffff16815260200190815260200160002060009054906101000a900460000b60000b03610770576040517f08c379a000000000000000000000000000000000000000000000000000000000815260040161076790611c88565b60405180910390fd5b60008160050160003373ffffffffffffffffffffffffffffffffffffffff1673ffffffffffffffffffffffffffffffffffffffff16815260200190815260200160002060009054906101000a900460000b90506802b5e3af16b1880000600360003373ffffffffffffffffffffffffffffffffffffffff1673ffffffffffffffffffffffffffffffffffffffff168152602001908152602001600020600082825461081b9190611ca8565b9250508190555060008054906101000a900473ffffffffffffffffffffffffffffffffffffffff1673ffffffffffffffffffffffffffffffffffffffff166381a4af15336802b5e3af16b18800006040518363ffffffff1660e01b8152600401610886929190611b31565b600060405180830381600087803b1580156108a057600080fd5b505af11580156108b4573d6000803e3d6000fd5b5050505060006108c333610c26565b9050808260000b6108d49190611b5a565b8360020160008282546108e79190611cdc565b9250508190555060008360050160003373ffffffffffffffffffffffffffffffffffffffff1673ffffffffffffffffffffffffffffffffffffffff16815260200190815260200160002060006101000a81548160ff021916908360000b60ff1602179055507fb6c537d4d5cd45cf3082c7458c198a25e5e551611604a18df485c806c2125c40843360405161097d929190611d1f565b60405180910390a150505050565b68056bc75e2d6310000060008054906101000a900473ffffffffffffffffffffffffffffffffffffffff1673ffffffffffffffffffffffffffffffffffffffff166370a08231336040518263ffffffff1660e01b81526004016109ee919061191c565b602060405180830381865afa158015610a0b573d6000803e3d6000fd5b505050506040513d601f19601f82011682018060405250810190610a2f919061194c565b1015610a70576040517f08c379a0000000000000000000000000000000000000000000000000000000008152600401610a67906119d6565b60405180910390fd5b60008054906101000a900473ffffffffffffffffffffffffffffffffffffffff1673ffffffffffffffffffffffffffffffffffffffff16630d1118ce3368056bc75e2d631000006040518363ffffffff1660e01b8152600401610ad4929190611b31565b600060405180830381600087803b158015610aee57600080fd5b505af1158015610b02573d6000803e3d6000fd5b5050505068056bc75e2d63100000600360003373ffffffffffffffffffffffffffffffffffffffff1673ffffffffffffffffffffffffffffffffffffffff1681526020019081526020016000206000828254610b5e9190611afd565b9250508190555060016000815480929190610b7890611d48565b9190505550600060026000600154815260200190815260200160002090506001548160000181905550338160010160006101000a81548173ffffffffffffffffffffffffffffffffffffffff021916908373ffffffffffffffffffffffffffffffffffffffff1602179055506000816002018190555060008160030160006101000a81548160ff02191690831515021790555050565b60036020528060005260406000206000915090505481565b60008060008054906101000a900473ffffffffffffffffffffffffffffffffffffffff1673ffffffffffffffffffffffffffffffffffffffff166370a08231846040518263ffffffff1660e01b8152600401610c82919061191c565b602060405180830381865afa158015610c9f573d6000803e3d6000fd5b505050506040513d601f19601f82011682018060405250810190610cc3919061194c565b9050683635c9adc5dea00000811115610ce0576003915050610d01565b681b1ae4d6e2ef500000811115610cfb576001915050610d01565b60019150505b919050565b674563918244f4000081565b60026020528060005260406000206000915090508060000154908060010160009054906101000a900473ffffffffffffffffffffffffffffffffffffffff16908060020154908060030160009054906101000a900460ff16905084565b60006002600083815260200190815260200160002090508060010160009054906101000a900473ffffffffffffffffffffffffffffffffffffffff1673ffffffffffffffffffffffffffffffffffffffff163373ffffffffffffffffffffffffffffffffffffffff1614610e18576040517f08c379a0000000000000000000000000000000000000000000000000000000008152600401610e0f90611ddc565b60405180910390fd5b8060030160009054906101000a900460ff1615610e6a576040517f08c379a0000000000000000000000000000000000000000000000000000000008152600401610e6190611e48565b60405180910390fd5b60008054906101000a900473ffffffffffffffffffffffffffffffffffffffff1673ffffffffffffffffffffffffffffffffffffffff166381a4af158260010160009054906101000a900473ffffffffffffffffffffffffffffffffffffffff1668056bc75e2d631000006040518363ffffffff1660e01b8152600401610ef2929190611b31565b600060405180830381600087803b158015610f0c57600080fd5b505af1158015610f20573d6000803e3d6000fd5b5050505068056bc75e2d63100000600360003373ffffffffffffffffffffffffffffffffffffffff1673ffffffffffffffffffffffffffffffffffffffff1681526020019081526020016000206000828254610f7c9190611ca8565b92505081905550600260008381526020019081526020016000206000808201600090556001820160006101000a81549073ffffffffffffffffffffffffffffffffffffffff021916905560028201600090556003820160006101000a81549060ff0219169055600482016000610ff29190611646565b50507fd70d884c5bc88c9a05d6a19993baba89fc62d9c3a7a02925bd6a748b2051d0bf8233604051611025929190611d1f565b60405180910390a15050565b6802b5e3af16b188000081565b60006002600083815260200190815260200160002090508060030160009054906101000a900460ff16156110a7576040517f08c379a000000000000000000000000000000000000000000000000000000000815260040161109e90611eb4565b60405180910390fd5b60018160030160006101000a81548160ff0219169083151502179055506000816002015413156110df576110da82611194565b6110e9565b6110e882611444565b5b68056bc75e2d63100000600360008360010160009054906101000a900473ffffffffffffffffffffffffffffffffffffffff1673ffffffffffffffffffffffffffffffffffffffff1673ffffffffffffffffffffffffffffffffffffffff16815260200190815260200160002060008282546111659190611ca8565b925050819055505050565b60008054906101000a900473ffffffffffffffffffffffffffffffffffffffff1681565b600060026000838152602001908152602001600020905060008054906101000a900473ffffffffffffffffffffffffffffffffffffffff1673ffffffffffffffffffffffffffffffffffffffff166381a4af158260010160009054906101000a900473ffffffffffffffffffffffffffffffffffffffff1668056bc75e2d63100000674563918244f400006112299190611afd565b6040518363ffffffff1660e01b8152600401611246929190611b31565b600060405180830381600087803b15801561126057600080fd5b505af1158015611274573d6000803e3d6000fd5b5050505060005b816004018054905081101561143f5760008260040182815481106112a2576112a1611ed4565b5b9060005260206000200160009054906101000a900473ffffffffffffffffffffffffffffffffffffffff16905060018360050160008373ffffffffffffffffffffffffffffffffffffffff1673ffffffffffffffffffffffffffffffffffffffff16815260200190815260200160002060009054906101000a900460000b60000b036113d25760008054906101000a900473ffffffffffffffffffffffffffffffffffffffff1673ffffffffffffffffffffffffffffffffffffffff166381a4af15826802b5e3af16b1880000678ac7230489e800006113829190611afd565b6040518363ffffffff1660e01b815260040161139f929190611b31565b600060405180830381600087803b1580156113b957600080fd5b505af11580156113cd573d6000803e3d6000fd5b505050505b6802b5e3af16b1880000600360008373ffffffffffffffffffffffffffffffffffffffff1673ffffffffffffffffffffffffffffffffffffffff168152602001908152602001600020600082825461142a9190611ca8565b9250508190555050808060010191505061127b565b505050565b600060026000838152602001908152602001600020905060005b816004018054905081101561164157600082600401828154811061148557611484611ed4565b5b9060005260206000200160009054906101000a900473ffffffffffffffffffffffffffffffffffffffff1690507fffffffffffffffffffffffffffffffffffffffffffffffffffffffffffffffff8360050160008373ffffffffffffffffffffffffffffffffffffffff1673ffffffffffffffffffffffffffffffffffffffff16815260200190815260200160002060009054906101000a900460000b60000b036115d45760008054906101000a900473ffffffffffffffffffffffffffffffffffffffff1673ffffffffffffffffffffffffffffffffffffffff166381a4af15826802b5e3af16b1880000678ac7230489e800006115849190611afd565b6040518363ffffffff1660e01b81526004016115a1929190611b31565b600060405180830381600087803b1580156115bb57600080fd5b505af11580156115cf573d6000803e3d6000fd5b505050505b6802b5e3af16b1880000600360008373ffffffffffffffffffffffffffffffffffffffff1673ffffffffffffffffffffffffffffffffffffffff168152602001908152602001600020600082825461162c9190611ca8565b9250508190555050808060010191505061145e565b505050565b50805460008255906000526020600020908101906116649190611667565b50565b5b80821115611680576000816000905550600101611668565b5090565b6000819050919050565b61169781611684565b82525050565b60006020820190506116b2600083018461168e565b92915050565b600080fd5b6116c681611684565b81146116d157600080fd5b50565b6000813590506116e3816116bd565b92915050565b60008160000b9050919050565b6116ff816116e9565b811461170a57600080fd5b50565b60008135905061171c816116f6565b92915050565b60008060408385031215611739576117386116b8565b5b6000611747858286016116d4565b92505060206117588582860161170d565b9150509250929050565b600060208284031215611778576117776116b8565b5b6000611786848285016116d4565b91505092915050565b600073ffffffffffffffffffffffffffffffffffffffff82169050919050565b60006117ba8261178f565b9050919050565b6117ca816117af565b81146117d557600080fd5b50565b6000813590506117e7816117c1565b92915050565b600060208284031215611803576118026116b8565b5b6000611811848285016117d8565b91505092915050565b611823816117af565b82525050565b6000819050919050565b61183c81611829565b82525050565b60008115159050919050565b61185781611842565b82525050565b6000608082019050611872600083018761168e565b61187f602083018661181a565b61188c6040830185611833565b611899606083018461184e565b95945050505050565b6000819050919050565b60006118c76118c26118bd8461178f565b6118a2565b61178f565b9050919050565b60006118d9826118ac565b9050919050565b60006118eb826118ce565b9050919050565b6118fb816118e0565b82525050565b600060208201905061191660008301846118f2565b92915050565b6000602082019050611931600083018461181a565b92915050565b600081519050611946816116bd565b92915050565b600060208284031215611962576119616116b8565b5b600061197084828501611937565b91505092915050565b600082825260208201905092915050565b7f496e73756666696369656e74207374616b650000000000000000000000000000600082015250565b60006119c0601283611979565b91506119cb8261198a565b602082019050919050565b600060208201905081810360008301526119ef816119b3565b9050919050565b7f496e76616c696420766f74650000000000000000000000000000000000000000600082015250565b6000611a2c600c83611979565b9150611a37826119f6565b602082019050919050565b60006020820190508181036000830152611a5b81611a1f565b9050919050565b7f416c726561647920766f74656400000000000000000000000000000000000000600082015250565b6000611a98600d83611979565b9150611aa382611a62565b602082019050919050565b60006020820190508181036000830152611ac781611a8b565b9050919050565b7f4e487b7100000000000000000000000000000000000000000000000000000000600052601160045260246000fd5b6000611b0882611684565b9150611b1383611684565b9250828201905080821115611b2b57611b2a611ace565b5b92915050565b6000604082019050611b46600083018561181a565b611b53602083018461168e565b9392505050565b6000611b6582611829565b9150611b7083611829565b9250828202611b7e81611829565b91507f80000000000000000000000000000000000000000000000000000000000000008414600084121615611bb657611bb5611ace565b5b8282058414831517611bcb57611bca611ace565b5b5092915050565b6000611bdd82611829565b9150611be883611829565b925082820190508281121560008312168382126000841215161715611c1057611c0f611ace565b5b92915050565b7f596f752068617665206e6f7420766f746564206f7220616c726561647920726560008201527f766f6b6564000000000000000000000000000000000000000000000000000000602082015250565b6000611c72602583611979565b9150611c7d82611c16565b604082019050919050565b60006020820190508181036000830152611ca181611c65565b9050919050565b6000611cb382611684565b9150611cbe83611684565b9250828203905081811115611cd657611cd5611ace565b5b92915050565b6000611ce782611829565b9150611cf283611829565b9250828203905081811260008412168282136000851215161715611d1957611d18611ace565b5b92915050565b6000604082019050611d34600083018561168e565b611d41602083018461181a565b9392505050565b6000611d5382611684565b91507fffffffffffffffffffffffffffffffffffffffffffffffffffffffffffffffff8203611d8557611d84611ace565b5b600182019050919050565b7f4f6e6c792075706c6f616465722063616e207265766f6b650000000000000000600082015250565b6000611dc6601883611979565b9150611dd182611d90565b602082019050919050565b60006020820190508181036000830152611df581611db9565b9050919050565b7f5265706f727420616c72656164792066696e616c697a65640000000000000000600082015250565b6000611e32601883611979565b9150611e3d82611dfc565b602082019050919050565b60006020820190508181036000830152611e6181611e25565b9050919050565b7f416c72656164792076616c696461746564000000000000000000000000000000600082015250565b6000611e9e601183611979565b9150611ea982611e68565b602082019050919050565b60006020820190508181036000830152611ecd81611e91565b9050919050565b7f4e487b7100000000000000000000000000000000000000000000000000000000600052603260045260246000fdfea26469706673582212201ee2e237743d305be7b7d2a9027959ca115331cf577b4037f4ece29d4480a6e264736f6c634300081c0033",
  "linkReferences": {},
  "deployedLinkReferences": {}
}