{
  "_format": "hh-sol-artifact-1",
  "contractName": "participate",
  "sourceName": "contracts/participate.sol",
  "abi": [
    {
      "inputs": [
        {
          "internalType": "address",
          "name": "tokenAddress",
          "type": "address"
        }
      ],
      "stateMutability": "nonpayable",
      "type": "constructor"
    },
    {
      "anonymous": false,
      "inputs": [
        {
          "indexed": false,
          "internalType": "uint256",
          "name": "reportId",
          "type": "uint256"
        },
        {
          "indexed": false,
          "internalType": "address",
          "name": "uploader",
          "type": "address"
        }
      ],
      "name": "ReportRevoked",
      "type": "event"
    },
    {
      "anonymous": false,
      "inputs": [
        {
          "indexed": false,
          "internalType": "uint256",
          "name": "reportId",
          "type": "uint256"
        },
        {
          "indexed": false,
          "internalType": "address",
          "name": "voter",
          "type": "address"
        }
      ],
      "name": "VoteRevoked",
      "type": "event"
    },
    {
      "inputs": [],
      "name": "REPORT_REWARD",
      "outputs": [
        {
          "internalType": "uint256",
          "name": "",
          "type": "uint256"
        }
      ],
      "stateMutability": "view",
      "type": "function"
    },
    {
      "inputs": [],
      "name": "REPORT_STAKE",
      "outputs": [
        {
          "internalType": "uint256",
          "name": "",
          "type": "uint256"
        }
      ],
      "stateMutability": "view",
      "type": "function"
    },
    {
      "inputs": [],
      "name": "VALIDATE_REWARD",
      "outputs": [
        {
          "internalType": "uint256",
          "name": "",
          "type": "uint256"
        }
      ],
      "stateMutability": "view",
      "type": "function"
    },
    {
      "inputs": [],
      "name": "VALIDATE_STAKE",
      "outputs": [
        {
          "internalType": "uint256",
          "name": "",
          "type": "uint256"
        }
      ],
      "stateMutability": "view",
      "type": "function"
    },
    {
      "inputs": [
        {
          "internalType": "uint256",
          "name": "reportId",
          "type": "uint256"
        }
      ],
      "name": "finalizeReport",
      "outputs": [],
      "stateMutability": "nonpayable",
      "type": "function"
    },
    {
      "inputs": [
        {
          "internalType": "address",
          "name": "user",
          "type": "address"
        }
      ],
      "name": "getVoteWeight",
      "outputs": [
        {
          "internalType": "uint256",
          "name": "",
          "type": "uint256"
        }
      ],
      "stateMutability": "view",
      "type": "function"
    },
    {
      "inputs": [],
      "name": "reportCount",
      "outputs": [
        {
          "internalType": "uint256",
          "name": "",
          "type": "uint256"
        }
      ],
      "stateMutability": "view",
      "type": "function"
    },
    {
      "inputs": [
        {
          "internalType": "uint256",
          "name": "",
          "type": "uint256"
        }
      ],
      "name": "reports",
      "outputs": [
        {
          "internalType": "uint256",
          "name": "id",
          "type": "uint256"
        },
        {
          "internalType": "address",
          "name": "uploader",
          "type": "address"
        },
        {
          "internalType": "int256",
          "name": "net_votes",
          "type": "int256"
        },
        {
          "internalType": "bool",
          "name": "validated",
          "type": "bool"
        }
      ],
      "stateMutability": "view",
      "type": "function"
    },
    {
      "inputs": [
        {
          "internalType": "uint256",
          "name": "reportId",
          "type": "uint256"
        }
      ],
      "name": "revoke_report",
      "outputs": [],
      "stateMutability": "nonpayable",
      "type": "function"
    },
    {
      "inputs": [
        {
          "internalType": "uint256",
          "name": "reportId",
          "type": "uint256"
        }
      ],
      "name": "revoke_vote",
      "outputs": [],
      "stateMutability": "nonpayable",
      "type": "function"
    },
    {
      "inputs": [
        {
          "internalType": "address",
          "name": "",
          "type": "address"
        }
      ],
      "name": "stakedTokens",
      "outputs": [
        {
          "internalType": "uint256",
          "name": "",
          "type": "uint256"
        }
      ],
      "stateMutability": "view",
      "type": "function"
    },
    {
      "inputs": [
        {
          "internalType": "uint256",
          "name": "reportId",
          "type": "uint256"
        }
      ],
      "name": "submitReport",
      "outputs": [],
      "stateMutability": "nonpayable",
      "type": "function"
    },
    {
      "inputs": [],
      "name": "token",
      "outputs": [
        {
          "internalType": "contract CampusToken",
          "name": "",
          "type": "address"
        }
      ],
      "stateMutability": "view",
      "type": "function"
    },
    {
      "inputs": [
        {
          "internalType": "uint256",
          "name": "reportId",
          "type": "uint256"
        },
        {
          "internalType": "int8",
          "name": "vote",
          "type": "int8"
        }
      ],
      "name": "validate",
      "outputs": [],
      "stateMutability": "nonpayable",
      "type": "function"
    }
  ],
  "bytecode": "0x6080604052600060015534801561001557600080fd5b50604051612066380380612066833981810160405281019061003791906100e0565b806000806101000a81548173ffffffffffffffffffffffffffffffffffffffff021916908373ffffffffffffffffffffffffffffffffffffffff1602179055505061010d565b600080fd5b600073ffffffffffffffffffffffffffffffffffffffff82169050919050565b60006100ad82610082565b9050919050565b6100bd816100a2565b81146100c857600080fd5b50565b6000815190506100da816100b4565b92915050565b6000602082840312156100f6576100f561007d565b5b6000610104848285016100cb565b91505092915050565b611f4a8061011c6000396000f3fe608060405234801561001057600080fd5b50600436106100ea5760003560e01c8063b12f55eb1161008c578063ed1957d911610066578063ed1957d91461024e578063f26eb2771461026c578063fa9c48b714610288578063fc0c546a146102a4576100ea565b8063b12f55eb146101e1578063c942adf7146101ff578063ca93ef1914610232576100ea565b80635ff2c42c116100c85780635ff2c42c146101475780636b38516f14610165578063a5b39cfb14610181578063a730117e146101b1576100ea565b8063185c6f84146100ef57806342530abd1461010d5780635790411e14610129575b600080fd5b6100f76102c2565b60405161010491906116ae565b60405180910390f35b61012760048036038101906101229190611733565b6102c8565b005b6101316106be565b60405161013e91906116ae565b60405180910390f35b61014f6106ca565b60405161015c91906116ae565b60405180910390f35b61017f600480360381019061017a9190611773565b6106d7565b005b61019b600480360381019061019691906117fe565b61099d565b6040516101a891906116ae565b60405180910390f35b6101cb60048036038101906101c691906117fe565b6109b5565b6040516101d891906116ae565b60405180910390f35b6101e9610a95565b6040516101f691906116ae565b60405180910390f35b61021960048036038101906102149190611773565b610aa2565b604051610229949392919061186e565b60405180910390f35b61024c60048036038101906102479190611773565b610aff565b005b610256610dc1565b60405161026391906116ae565b60405180910390f35b61028660048036038101906102819190611773565b610dce565b005b6102a2600480360381019061029d9190611773565b61104e565b005b6102ac611180565b6040516102b99190611912565b60405180910390f35b60015481565b60006002600084815260200190815260200160002090506802b5e3af16b188000060008054906101000a900473ffffffffffffffffffffffffffffffffffffffff1673ffffffffffffffffffffffffffffffffffffffff166370a08231336040518263ffffffff1660e01b8152600401610342919061192d565b602060405180830381865afa15801561035f573d6000803e3d6000fd5b505050506040513d601f19601f82011682018060405250810190610383919061195d565b10156103c4576040517f08c379a00000000000000000000000000000000000000000000000000000000081526004016103bb906119e7565b60405180910390fd5b60018260000b14806103f857507fffffffffffffffffffffffffffffffffffffffffffffffffffffffffffffffff8260000b145b610437576040517f08c379a000000000000000000000000000000000000000000000000000000000815260040161042e90611a53565b60405180910390fd5b60008160050160003373ffffffffffffffffffffffffffffffffffffffff1673ffffffffffffffffffffffffffffffffffffffff16815260200190815260200160002060009054906101000a900460000b60000b146104cb576040517f08c379a00000000000000000000000000000000000000000000000000000000081526004016104c290611abf565b60405180910390fd5b6802b5e3af16b1880000600360003373ffffffffffffffffffffffffffffffffffffffff1673ffffffffffffffffffffffffffffffffffffffff16815260200190815260200160002060008282546105239190611b0e565b9250508190555060008054906101000a900473ffffffffffffffffffffffffffffffffffffffff1673ffffffffffffffffffffffffffffffffffffffff16630d1118ce336802b5e3af16b18800006040518363ffffffff1660e01b815260040161058e929190611b42565b600060405180830381600087803b1580156105a857600080fd5b505af11580156105bc573d6000803e3d6000fd5b5050505060006105cb336109b5565b9050808360000b6105dc9190611b6b565b8260020160008282546105ef9190611be3565b92505081905550828260050160003373ffffffffffffffffffffffffffffffffffffffff1673ffffffffffffffffffffffffffffffffffffffff16815260200190815260200160002060006101000a81548160ff021916908360000b60ff16021790555081600401339080600181540180825580915050600190039060005260206000200160009091909190916101000a81548173ffffffffffffffffffffffffffffffffffffffff021916908373ffffffffffffffffffffffffffffffffffffffff16021790555050505050565b674563918244f4000081565b68015af1d78b58c4000081565b600060026000838152602001908152602001600020905060008160050160003373ffffffffffffffffffffffffffffffffffffffff1673ffffffffffffffffffffffffffffffffffffffff16815260200190815260200160002060009054906101000a900460000b60000b03610782576040517f08c379a000000000000000000000000000000000000000000000000000000000815260040161077990611c99565b60405180910390fd5b60008160050160003373ffffffffffffffffffffffffffffffffffffffff1673ffffffffffffffffffffffffffffffffffffffff16815260200190815260200160002060009054906101000a900460000b90506802b5e3af16b1880000600360003373ffffffffffffffffffffffffffffffffffffffff1673ffffffffffffffffffffffffffffffffffffffff168152602001908152602001600020600082825461082d9190611cb9565b9250508190555060008054906101000a900473ffffffffffffffffffffffffffffffffffffffff1673ffffffffffffffffffffffffffffffffffffffff166381a4af15336802b5e3af16b18800006040518363ffffffff1660e01b8152600401610898929190611b42565b600060405180830381600087803b1580156108b257600080fd5b505af11580156108c6573d6000803e3d6000fd5b5050505060006108d5336109b5565b9050808260000b6108e69190611b6b565b8360020160008282546108f99190611ced565b9250508190555060008360050160003373ffffffffffffffffffffffffffffffffffffffff1673ffffffffffffffffffffffffffffffffffffffff16815260200190815260200160002060006101000a81548160ff021916908360000b60ff1602179055507fb6c537d4d5cd45cf3082c7458c198a25e5e551611604a18df485c806c2125c40843360405161098f929190611d30565b60405180910390a150505050565b60036020528060005260406000206000915090505481565b60008060008054906101000a900473ffffffffffffffffffffffffffffffffffffffff1673ffffffffffffffffffffffffffffffffffffffff166370a08231846040518263ffffffff1660e01b8152600401610a11919061192d565b602060405180830381865afa158015610a2e573d6000803e3d6000fd5b505050506040513d601f19601f82011682018060405250810190610a52919061195d565b9050683635c9adc5dea00000811115610a6f576003915050610a90565b681b1ae4d6e2ef500000811115610a8a576001915050610a90565b60019150505b919050565b68056bc75e2d6310000081565b60026020528060005260406000206000915090508060000154908060010160009054906101000a900473ffffffffffffffffffffffffffffffffffffffff16908060020154908060030160009054906101000a900460ff16905084565b60006002600083815260200190815260200160002090508060010160009054906101000a900473ffffffffffffffffffffffffffffffffffffffff1673ffffffffffffffffffffffffffffffffffffffff163373ffffffffffffffffffffffffffffffffffffffff1614610ba8576040517f08c379a0000000000000000000000000000000000000000000000000000000008152600401610b9f90611da5565b60405180910390fd5b8060030160009054906101000a900460ff1615610bfa576040517f08c379a0000000000000000000000000000000000000000000000000000000008152600401610bf190611e11565b60405180910390fd5b60008054906101000a900473ffffffffffffffffffffffffffffffffffffffff1673ffffffffffffffffffffffffffffffffffffffff166381a4af158260010160009054906101000a900473ffffffffffffffffffffffffffffffffffffffff1668015af1d78b58c400006040518363ffffffff1660e01b8152600401610c82929190611b42565b600060405180830381600087803b158015610c9c57600080fd5b505af1158015610cb0573d6000803e3d6000fd5b5050505068015af1d78b58c40000600360003373ffffffffffffffffffffffffffffffffffffffff1673ffffffffffffffffffffffffffffffffffffffff1681526020019081526020016000206000828254610d0c9190611cb9565b92505081905550600260008381526020019081526020016000206000808201600090556001820160006101000a81549073ffffffffffffffffffffffffffffffffffffffff021916905560028201600090556003820160006101000a81549060ff0219169055600482016000610d829190611657565b50507fd70d884c5bc88c9a05d6a19993baba89fc62d9c3a7a02925bd6a748b2051d0bf8233604051610db5929190611d30565b60405180910390a15050565b6802b5e3af16b188000081565b68015af1d78b58c4000060008054906101000a900473ffffffffffffffffffffffffffffffffffffffff1673ffffffffffffffffffffffffffffffffffffffff166370a08231336040518263ffffffff1660e01b8152600401610e31919061192d565b602060405180830381865afa158015610e4e573d6000803e3d6000fd5b505050506040513d601f19601f82011682018060405250810190610e72919061195d565b1015610eb3576040517f08c379a0000000000000000000000000000000000000000000000000000000008152600401610eaa906119e7565b60405180910390fd5b60008054906101000a900473ffffffffffffffffffffffffffffffffffffffff1673ffffffffffffffffffffffffffffffffffffffff16630d1118ce3368015af1d78b58c400006040518363ffffffff1660e01b8152600401610f17929190611b42565b600060405180830381600087803b158015610f3157600080fd5b505af1158015610f45573d6000803e3d6000fd5b5050505068015af1d78b58c40000600360003373ffffffffffffffffffffffffffffffffffffffff1673ffffffffffffffffffffffffffffffffffffffff1681526020019081526020016000206000828254610fa19190611b0e565b9250508190555060016000815480929190610fbb90611e31565b91905055506000600260008381526020019081526020016000209050818160000181905550338160010160006101000a81548173ffffffffffffffffffffffffffffffffffffffff021916908373ffffffffffffffffffffffffffffffffffffffff1602179055506000816002018190555060008160030160006101000a81548160ff0219169083151502179055505050565b60006002600083815260200190815260200160002090508060030160009054906101000a900460ff16156110b7576040517f08c379a00000000000000000000000000000000000000000000000000000000081526004016110ae90611ec5565b60405180910390fd5b60018160030160006101000a81548160ff02191690831515021790555068015af1d78b58c40000600360008360010160009054906101000a900473ffffffffffffffffffffffffffffffffffffffff1673ffffffffffffffffffffffffffffffffffffffff1673ffffffffffffffffffffffffffffffffffffffff16815260200190815260200160002060008282546111509190611cb9565b925050819055506000816002015413156111725761116d826111a4565b61117c565b61117b82611455565b5b5050565b60008054906101000a900473ffffffffffffffffffffffffffffffffffffffff1681565b600060026000838152602001908152602001600020905060008054906101000a900473ffffffffffffffffffffffffffffffffffffffff1673ffffffffffffffffffffffffffffffffffffffff166381a4af158260010160009054906101000a900473ffffffffffffffffffffffffffffffffffffffff1668015af1d78b58c4000068056bc75e2d6310000061123a9190611b0e565b6040518363ffffffff1660e01b8152600401611257929190611b42565b600060405180830381600087803b15801561127157600080fd5b505af1158015611285573d6000803e3d6000fd5b5050505060005b81600401805490508110156114505760008260040182815481106112b3576112b2611ee5565b5b9060005260206000200160009054906101000a900473ffffffffffffffffffffffffffffffffffffffff16905060018360050160008373ffffffffffffffffffffffffffffffffffffffff1673ffffffffffffffffffffffffffffffffffffffff16815260200190815260200160002060009054906101000a900460000b60000b036113e35760008054906101000a900473ffffffffffffffffffffffffffffffffffffffff1673ffffffffffffffffffffffffffffffffffffffff166381a4af15826802b5e3af16b1880000674563918244f400006113939190611b0e565b6040518363ffffffff1660e01b81526004016113b0929190611b42565b600060405180830381600087803b1580156113ca57600080fd5b505af11580156113de573d6000803e3d6000fd5b505050505b6802b5e3af16b1880000600360008373ffffffffffffffffffffffffffffffffffffffff1673ffffffffffffffffffffffffffffffffffffffff168152602001908152602001600020600082825461143b9190611cb9565b9250508190555050808060010191505061128c565b505050565b600060026000838152602001908152602001600020905060005b816004018054905081101561165257600082600401828154811061149657611495611ee5565b5b9060005260206000200160009054906101000a900473ffffffffffffffffffffffffffffffffffffffff1690507fffffffffffffffffffffffffffffffffffffffffffffffffffffffffffffffff8360050160008373ffffffffffffffffffffffffffffffffffffffff1673ffffffffffffffffffffffffffffffffffffffff16815260200190815260200160002060009054906101000a900460000b60000b036115e55760008054906101000a900473ffffffffffffffffffffffffffffffffffffffff1673ffffffffffffffffffffffffffffffffffffffff166381a4af15826802b5e3af16b1880000674563918244f400006115959190611b0e565b6040518363ffffffff1660e01b81526004016115b2929190611b42565b600060405180830381600087803b1580156115cc57600080fd5b505af11580156115e0573d6000803e3d6000fd5b505050505b6802b5e3af16b1880000600360008373ffffffffffffffffffffffffffffffffffffffff1673ffffffffffffffffffffffffffffffffffffffff168152602001908152602001600020600082825461163d9190611cb9565b9250508190555050808060010191505061146f565b505050565b50805460008255906000526020600020908101906116759190611678565b50565b5b80821115611691576000816000905550600101611679565b5090565b6000819050919050565b6116a881611695565b82525050565b60006020820190506116c3600083018461169f565b92915050565b600080fd5b6116d781611695565b81146116e257600080fd5b50565b6000813590506116f4816116ce565b92915050565b60008160000b9050919050565b611710816116fa565b811461171b57600080fd5b50565b60008135905061172d81611707565b92915050565b6000806040838503121561174a576117496116c9565b5b6000611758858286016116e5565b92505060206117698582860161171e565b9150509250929050565b600060208284031215611789576117886116c9565b5b6000611797848285016116e5565b91505092915050565b600073ffffffffffffffffffffffffffffffffffffffff82169050919050565b60006117cb826117a0565b9050919050565b6117db816117c0565b81146117e657600080fd5b50565b6000813590506117f8816117d2565b92915050565b600060208284031215611814576118136116c9565b5b6000611822848285016117e9565b91505092915050565b611834816117c0565b82525050565b6000819050919050565b61184d8161183a565b82525050565b60008115159050919050565b61186881611853565b82525050565b6000608082019050611883600083018761169f565b611890602083018661182b565b61189d6040830185611844565b6118aa606083018461185f565b95945050505050565b6000819050919050565b60006118d86118d36118ce846117a0565b6118b3565b6117a0565b9050919050565b60006118ea826118bd565b9050919050565b60006118fc826118df565b9050919050565b61190c816118f1565b82525050565b60006020820190506119276000830184611903565b92915050565b6000602082019050611942600083018461182b565b92915050565b600081519050611957816116ce565b92915050565b600060208284031215611973576119726116c9565b5b600061198184828501611948565b91505092915050565b600082825260208201905092915050565b7f496e73756666696369656e74207374616b650000000000000000000000000000600082015250565b60006119d160128361198a565b91506119dc8261199b565b602082019050919050565b60006020820190508181036000830152611a00816119c4565b9050919050565b7f496e76616c696420766f74650000000000000000000000000000000000000000600082015250565b6000611a3d600c8361198a565b9150611a4882611a07565b602082019050919050565b60006020820190508181036000830152611a6c81611a30565b9050919050565b7f416c726561647920766f74656400000000000000000000000000000000000000600082015250565b6000611aa9600d8361198a565b9150611ab482611a73565b602082019050919050565b60006020820190508181036000830152611ad881611a9c565b9050919050565b7f4e487b7100000000000000000000000000000000000000000000000000000000600052601160045260246000fd5b6000611b1982611695565b9150611b2483611695565b9250828201905080821115611b3c57611b3b611adf565b5b92915050565b6000604082019050611b57600083018561182b565b611b64602083018461169f565b9392505050565b6000611b768261183a565b9150611b818361183a565b9250828202611b8f8161183a565b91507f80000000000000000000000000000000000000000000000000000000000000008414600084121615611bc757611bc6611adf565b5b8282058414831517611bdc57611bdb611adf565b5b5092915050565b6000611bee8261183a565b9150611bf98361183a565b925082820190508281121560008312168382126000841215161715611c2157611c20611adf565b5b92915050565b7f596f752068617665206e6f7420766f746564206f7220616c726561647920726560008201527f766f6b6564000000000000000000000000000000000000000000000000000000602082015250565b6000611c8360258361198a565b9150611c8e82611c27565b604082019050919050565b60006020820190508181036000830152611cb281611c76565b9050919050565b6000611cc482611695565b9150611ccf83611695565b9250828203905081811115611ce757611ce6611adf565b5b92915050565b6000611cf88261183a565b9150611d038361183a565b9250828203905081811260008412168282136000851215161715611d2a57611d29611adf565b5b92915050565b6000604082019050611d45600083018561169f565b611d52602083018461182b565b9392505050565b7f4f6e6c792075706c6f616465722063616e207265766f6b650000000000000000600082015250565b6000611d8f60188361198a565b9150611d9a82611d59565b602082019050919050565b60006020820190508181036000830152611dbe81611d82565b9050919050565b7f5265706f727420616c72656164792066696e616c697a65640000000000000000600082015250565b6000611dfb60188361198a565b9150611e0682611dc5565b602082019050919050565b60006020820190508181036000830152611e2a81611dee565b9050919050565b6000611e3c82611695565b91507fffffffffffffffffffffffffffffffffffffffffffffffffffffffffffffffff8203611e6e57611e6d611adf565b5b600182019050919050565b7f416c72656164792076616c696461746564000000000000000000000000000000600082015250565b6000611eaf60118361198a565b9150611eba82611e79565b602082019050919050565b60006020820190508181036000830152611ede81611ea2565b9050919050565b7f4e487b7100000000000000000000000000000000000000000000000000000000600052603260045260246000fdfea26469706673582212203645c3dc30bed1b15a7f671723b30aba22dbb896160afd9e040e995e1f6b6eed64736f6c634300081c0033",
  "linkReferences": {},
  "deployedLinkReferences": {}
}